{
	"1_Challenge.sol": {
		"Challenge_1": {
			"abi": [
				{
					"inputs": [],
					"name": "getBool",
					"outputs": [
						{
							"internalType": "bool",
							"name": "",
							"type": "bool"
						}
					],
					"stateMutability": "view",
					"type": "function"
				},
				{
					"inputs": [],
					"name": "getName",
					"outputs": [
						{
							"internalType": "string",
							"name": "",
							"type": "string"
						}
					],
					"stateMutability": "view",
					"type": "function"
				},
				{
					"inputs": [],
					"name": "getNegNum",
					"outputs": [
						{
							"internalType": "int256",
							"name": "",
							"type": "int256"
						}
					],
					"stateMutability": "view",
					"type": "function"
				},
				{
					"inputs": [],
					"name": "getNum",
					"outputs": [
						{
							"internalType": "uint256",
							"name": "",
							"type": "uint256"
						}
					],
					"stateMutability": "view",
					"type": "function"
				},
				{
					"inputs": [
						{
							"internalType": "bool",
							"name": "_fall",
							"type": "bool"
						}
					],
					"name": "setBool",
					"outputs": [],
					"stateMutability": "nonpayable",
					"type": "function"
				},
				{
					"inputs": [
						{
							"internalType": "string",
							"name": "_name",
							"type": "string"
						}
					],
					"name": "setName",
					"outputs": [],
					"stateMutability": "nonpayable",
					"type": "function"
				},
				{
					"inputs": [
						{
							"internalType": "int256",
							"name": "_negNum",
							"type": "int256"
						}
					],
					"name": "setNegNum",
					"outputs": [],
					"stateMutability": "nonpayable",
					"type": "function"
				},
				{
					"inputs": [
						{
							"internalType": "uint256",
							"name": "_num",
							"type": "uint256"
						}
					],
					"name": "setNum",
					"outputs": [],
					"stateMutability": "nonpayable",
					"type": "function"
				}
			],
			"devdoc": {
				"kind": "dev",
				"methods": {},
				"version": 1
			},
			"evm": {
				"assembly": "    /* \"1_Challenge.sol\":58:774  contract Challenge_1 {... */\n  mstore(0x40, 0x80)\n  callvalue\n  dup1\n  iszero\n  tag_1\n  jumpi\n  0x00\n  dup1\n  revert\ntag_1:\n  pop\n  dataSize(sub_0)\n  dup1\n  dataOffset(sub_0)\n  0x00\n  codecopy\n  0x00\n  return\nstop\n\nsub_0: assembly {\n        /* \"1_Challenge.sol\":58:774  contract Challenge_1 {... */\n      mstore(0x40, 0x80)\n      callvalue\n      dup1\n      iszero\n      tag_1\n      jumpi\n      0x00\n      dup1\n      revert\n    tag_1:\n      pop\n      jumpi(tag_2, lt(calldatasize, 0x04))\n      shr(0xe0, calldataload(0x00))\n      dup1\n      0x6c648b68\n      gt\n      tag_11\n      jumpi\n      dup1\n      0x6c648b68\n      eq\n      tag_7\n      jumpi\n      dup1\n      0xc47f0027\n      eq\n      tag_8\n      jumpi\n      dup1\n      0xcd16ecbf\n      eq\n      tag_9\n      jumpi\n      dup1\n      0xfcf74f16\n      eq\n      tag_10\n      jumpi\n      jump(tag_2)\n    tag_11:\n      dup1\n      0x12a7b914\n      eq\n      tag_3\n      jumpi\n      dup1\n      0x17d7de7c\n      eq\n      tag_4\n      jumpi\n      dup1\n      0x1e26fd33\n      eq\n      tag_5\n      jumpi\n      dup1\n      0x67e0badb\n      eq\n      tag_6\n      jumpi\n    tag_2:\n      0x00\n      dup1\n      revert\n        /* \"1_Challenge.sol\":694:767  function getBool() public view returns (bool){... */\n    tag_3:\n      tag_12\n      tag_13\n      jump\t// in\n    tag_12:\n      mload(0x40)\n      tag_14\n      swap2\n      swap1\n      tag_15\n      jump\t// in\n    tag_14:\n      mload(0x40)\n      dup1\n      swap2\n      sub\n      swap1\n      return\n        /* \"1_Challenge.sol\":534:618  function getName() public view returns (string memory) {... */\n    tag_4:\n      tag_16\n      tag_17\n      jump\t// in\n    tag_16:\n      mload(0x40)\n      tag_18\n      swap2\n      swap1\n      tag_19\n      jump\t// in\n    tag_18:\n      mload(0x40)\n      dup1\n      swap2\n      sub\n      swap1\n      return\n        /* \"1_Challenge.sol\":624:689  function setBool(bool _fall) public {... */\n    tag_5:\n      tag_20\n      0x04\n      dup1\n      calldatasize\n      sub\n      dup2\n      add\n      swap1\n      tag_21\n      swap2\n      swap1\n      tag_22\n      jump\t// in\n    tag_21:\n      tag_23\n      jump\t// in\n    tag_20:\n      stop\n        /* \"1_Challenge.sol\":376:448  function getNum() public view returns (uint) {... */\n    tag_6:\n      tag_24\n      tag_25\n      jump\t// in\n    tag_24:\n      mload(0x40)\n      tag_26\n      swap2\n      swap1\n      tag_27\n      jump\t// in\n    tag_26:\n      mload(0x40)\n      dup1\n      swap2\n      sub\n      swap1\n      return\n        /* \"1_Challenge.sol\":148:220  function setNegNum(int _negNum) public {... */\n    tag_7:\n      tag_28\n      0x04\n      dup1\n      calldatasize\n      sub\n      dup2\n      add\n      swap1\n      tag_29\n      swap2\n      swap1\n      tag_30\n      jump\t// in\n    tag_29:\n      tag_31\n      jump\t// in\n    tag_28:\n      stop\n        /* \"1_Challenge.sol\":454:528  function setName(string memory _name) public {... */\n    tag_8:\n      tag_32\n      0x04\n      dup1\n      calldatasize\n      sub\n      dup2\n      add\n      swap1\n      tag_33\n      swap2\n      swap1\n      tag_34\n      jump\t// in\n    tag_33:\n      tag_35\n      jump\t// in\n    tag_32:\n      stop\n        /* \"1_Challenge.sol\":309:370  function setNum(uint _num) public {... */\n    tag_9:\n      tag_36\n      0x04\n      dup1\n      calldatasize\n      sub\n      dup2\n      add\n      swap1\n      tag_37\n      swap2\n      swap1\n      tag_38\n      jump\t// in\n    tag_37:\n      tag_39\n      jump\t// in\n    tag_36:\n      stop\n        /* \"1_Challenge.sol\":226:303  function getNegNum() public view returns (int) {... */\n    tag_10:\n      tag_40\n      tag_41\n      jump\t// in\n    tag_40:\n      mload(0x40)\n      tag_42\n      swap2\n      swap1\n      tag_43\n      jump\t// in\n    tag_42:\n      mload(0x40)\n      dup1\n      swap2\n      sub\n      swap1\n      return\n        /* \"1_Challenge.sol\":694:767  function getBool() public view returns (bool){... */\n    tag_13:\n        /* \"1_Challenge.sol\":734:738  bool */\n      0x00\n        /* \"1_Challenge.sol\":756:760  fall */\n      0x02\n      0x00\n      swap1\n      sload\n      swap1\n      0x0100\n      exp\n      swap1\n      div\n      0xff\n      and\n        /* \"1_Challenge.sol\":749:760  return fall */\n      swap1\n      pop\n        /* \"1_Challenge.sol\":694:767  function getBool() public view returns (bool){... */\n      swap1\n      jump\t// out\n        /* \"1_Challenge.sol\":534:618  function getName() public view returns (string memory) {... */\n    tag_17:\n        /* \"1_Challenge.sol\":574:587  string memory */\n      0x60\n        /* \"1_Challenge.sol\":607:611  name */\n      0x01\n        /* \"1_Challenge.sol\":599:611  return  name */\n      dup1\n      sload\n      tag_46\n      swap1\n      tag_47\n      jump\t// in\n    tag_46:\n      dup1\n      0x1f\n      add\n      0x20\n      dup1\n      swap2\n      div\n      mul\n      0x20\n      add\n      mload(0x40)\n      swap1\n      dup2\n      add\n      0x40\n      mstore\n      dup1\n      swap3\n      swap2\n      swap1\n      dup2\n      dup2\n      mstore\n      0x20\n      add\n      dup3\n      dup1\n      sload\n      tag_48\n      swap1\n      tag_47\n      jump\t// in\n    tag_48:\n      dup1\n      iszero\n      tag_49\n      jumpi\n      dup1\n      0x1f\n      lt\n      tag_50\n      jumpi\n      0x0100\n      dup1\n      dup4\n      sload\n      div\n      mul\n      dup4\n      mstore\n      swap2\n      0x20\n      add\n      swap2\n      jump(tag_49)\n    tag_50:\n      dup3\n      add\n      swap2\n      swap1\n      0x00\n      mstore\n      keccak256(0x00, 0x20)\n      swap1\n    tag_51:\n      dup2\n      sload\n      dup2\n      mstore\n      swap1\n      0x01\n      add\n      swap1\n      0x20\n      add\n      dup1\n      dup4\n      gt\n      tag_51\n      jumpi\n      dup3\n      swap1\n      sub\n      0x1f\n      and\n      dup3\n      add\n      swap2\n    tag_49:\n      pop\n      pop\n      pop\n      pop\n      pop\n      swap1\n      pop\n        /* \"1_Challenge.sol\":534:618  function getName() public view returns (string memory) {... */\n      swap1\n      jump\t// out\n        /* \"1_Challenge.sol\":624:689  function setBool(bool _fall) public {... */\n    tag_23:\n        /* \"1_Challenge.sol\":677:682  _fall */\n      dup1\n        /* \"1_Challenge.sol\":670:674  fall */\n      0x02\n      0x00\n        /* \"1_Challenge.sol\":670:682  fall = _fall */\n      0x0100\n      exp\n      dup2\n      sload\n      dup2\n      0xff\n      mul\n      not\n      and\n      swap1\n      dup4\n      iszero\n      iszero\n      mul\n      or\n      swap1\n      sstore\n      pop\n        /* \"1_Challenge.sol\":624:689  function setBool(bool _fall) public {... */\n      pop\n      jump\t// out\n        /* \"1_Challenge.sol\":376:448  function getNum() public view returns (uint) {... */\n    tag_25:\n        /* \"1_Challenge.sol\":415:419  uint */\n      0x00\n        /* \"1_Challenge.sol\":438:441  num */\n      dup1\n      sload\n        /* \"1_Challenge.sol\":431:441  return num */\n      swap1\n      pop\n        /* \"1_Challenge.sol\":376:448  function getNum() public view returns (uint) {... */\n      swap1\n      jump\t// out\n        /* \"1_Challenge.sol\":148:220  function setNegNum(int _negNum) public {... */\n    tag_31:\n        /* \"1_Challenge.sol\":206:213  _negNum */\n      dup1\n        /* \"1_Challenge.sol\":197:203  negNum */\n      0x03\n        /* \"1_Challenge.sol\":197:213  negNum = _negNum */\n      dup2\n      swap1\n      sstore\n      pop\n        /* \"1_Challenge.sol\":148:220  function setNegNum(int _negNum) public {... */\n      pop\n      jump\t// out\n        /* \"1_Challenge.sol\":454:528  function setName(string memory _name) public {... */\n    tag_35:\n        /* \"1_Challenge.sol\":516:521  _name */\n      dup1\n        /* \"1_Challenge.sol\":509:513  name */\n      0x01\n        /* \"1_Challenge.sol\":509:521  name = _name */\n      swap1\n      dup2\n      tag_56\n      swap2\n      swap1\n      tag_57\n      jump\t// in\n    tag_56:\n      pop\n        /* \"1_Challenge.sol\":454:528  function setName(string memory _name) public {... */\n      pop\n      jump\t// out\n        /* \"1_Challenge.sol\":309:370  function setNum(uint _num) public {... */\n    tag_39:\n        /* \"1_Challenge.sol\":359:363  _num */\n      dup1\n        /* \"1_Challenge.sol\":353:356  num */\n      0x00\n        /* \"1_Challenge.sol\":353:363  num = _num */\n      dup2\n      swap1\n      sstore\n      pop\n        /* \"1_Challenge.sol\":309:370  function setNum(uint _num) public {... */\n      pop\n      jump\t// out\n        /* \"1_Challenge.sol\":226:303  function getNegNum() public view returns (int) {... */\n    tag_41:\n        /* \"1_Challenge.sol\":268:271  int */\n      0x00\n        /* \"1_Challenge.sol\":290:296  negNum */\n      sload(0x03)\n        /* \"1_Challenge.sol\":283:296  return negNum */\n      swap1\n      pop\n        /* \"1_Challenge.sol\":226:303  function getNegNum() public view returns (int) {... */\n      swap1\n      jump\t// out\n        /* \"#utility.yul\":7:97   */\n    tag_60:\n        /* \"#utility.yul\":41:48   */\n      0x00\n        /* \"#utility.yul\":84:89   */\n      dup2\n        /* \"#utility.yul\":77:90   */\n      iszero\n        /* \"#utility.yul\":70:91   */\n      iszero\n        /* \"#utility.yul\":59:91   */\n      swap1\n      pop\n        /* \"#utility.yul\":7:97   */\n      swap2\n      swap1\n      pop\n      jump\t// out\n        /* \"#utility.yul\":103:212   */\n    tag_61:\n        /* \"#utility.yul\":184:205   */\n      tag_108\n        /* \"#utility.yul\":199:204   */\n      dup2\n        /* \"#utility.yul\":184:205   */\n      tag_60\n      jump\t// in\n    tag_108:\n        /* \"#utility.yul\":179:182   */\n      dup3\n        /* \"#utility.yul\":172:206   */\n      mstore\n        /* \"#utility.yul\":103:212   */\n      pop\n      pop\n      jump\t// out\n        /* \"#utility.yul\":218:428   */\n    tag_15:\n        /* \"#utility.yul\":305:309   */\n      0x00\n        /* \"#utility.yul\":343:345   */\n      0x20\n        /* \"#utility.yul\":332:341   */\n      dup3\n        /* \"#utility.yul\":328:346   */\n      add\n        /* \"#utility.yul\":320:346   */\n      swap1\n      pop\n        /* \"#utility.yul\":356:421   */\n      tag_110\n        /* \"#utility.yul\":418:419   */\n      0x00\n        /* \"#utility.yul\":407:416   */\n      dup4\n        /* \"#utility.yul\":403:420   */\n      add\n        /* \"#utility.yul\":394:400   */\n      dup5\n        /* \"#utility.yul\":356:421   */\n      tag_61\n      jump\t// in\n    tag_110:\n        /* \"#utility.yul\":218:428   */\n      swap3\n      swap2\n      pop\n      pop\n      jump\t// out\n        /* \"#utility.yul\":434:533   */\n    tag_62:\n        /* \"#utility.yul\":486:492   */\n      0x00\n        /* \"#utility.yul\":520:525   */\n      dup2\n        /* \"#utility.yul\":514:526   */\n      mload\n        /* \"#utility.yul\":504:526   */\n      swap1\n      pop\n        /* \"#utility.yul\":434:533   */\n      swap2\n      swap1\n      pop\n      jump\t// out\n        /* \"#utility.yul\":539:708   */\n    tag_63:\n        /* \"#utility.yul\":623:634   */\n      0x00\n        /* \"#utility.yul\":657:663   */\n      dup3\n        /* \"#utility.yul\":652:655   */\n      dup3\n        /* \"#utility.yul\":645:664   */\n      mstore\n        /* \"#utility.yul\":697:701   */\n      0x20\n        /* \"#utility.yul\":692:695   */\n      dup3\n        /* \"#utility.yul\":688:702   */\n      add\n        /* \"#utility.yul\":673:702   */\n      swap1\n      pop\n        /* \"#utility.yul\":539:708   */\n      swap3\n      swap2\n      pop\n      pop\n      jump\t// out\n        /* \"#utility.yul\":714:853   */\n    tag_64:\n        /* \"#utility.yul\":803:809   */\n      dup3\n        /* \"#utility.yul\":798:801   */\n      dup2\n        /* \"#utility.yul\":793:796   */\n      dup4\n        /* \"#utility.yul\":787:810   */\n      mcopy\n        /* \"#utility.yul\":844:845   */\n      0x00\n        /* \"#utility.yul\":835:841   */\n      dup4\n        /* \"#utility.yul\":830:833   */\n      dup4\n        /* \"#utility.yul\":826:842   */\n      add\n        /* \"#utility.yul\":819:846   */\n      mstore\n        /* \"#utility.yul\":714:853   */\n      pop\n      pop\n      pop\n      jump\t// out\n        /* \"#utility.yul\":859:961   */\n    tag_65:\n        /* \"#utility.yul\":900:906   */\n      0x00\n        /* \"#utility.yul\":951:953   */\n      0x1f\n        /* \"#utility.yul\":947:954   */\n      not\n        /* \"#utility.yul\":942:944   */\n      0x1f\n        /* \"#utility.yul\":935:940   */\n      dup4\n        /* \"#utility.yul\":931:945   */\n      add\n        /* \"#utility.yul\":927:955   */\n      and\n        /* \"#utility.yul\":917:955   */\n      swap1\n      pop\n        /* \"#utility.yul\":859:961   */\n      swap2\n      swap1\n      pop\n      jump\t// out\n        /* \"#utility.yul\":967:1344   */\n    tag_66:\n        /* \"#utility.yul\":1055:1058   */\n      0x00\n        /* \"#utility.yul\":1083:1122   */\n      tag_116\n        /* \"#utility.yul\":1116:1121   */\n      dup3\n        /* \"#utility.yul\":1083:1122   */\n      tag_62\n      jump\t// in\n    tag_116:\n        /* \"#utility.yul\":1138:1209   */\n      tag_117\n        /* \"#utility.yul\":1202:1208   */\n      dup2\n        /* \"#utility.yul\":1197:1200   */\n      dup6\n        /* \"#utility.yul\":1138:1209   */\n      tag_63\n      jump\t// in\n    tag_117:\n        /* \"#utility.yul\":1131:1209   */\n      swap4\n      pop\n        /* \"#utility.yul\":1218:1283   */\n      tag_118\n        /* \"#utility.yul\":1276:1282   */\n      dup2\n        /* \"#utility.yul\":1271:1274   */\n      dup6\n        /* \"#utility.yul\":1264:1268   */\n      0x20\n        /* \"#utility.yul\":1257:1262   */\n      dup7\n        /* \"#utility.yul\":1253:1269   */\n      add\n        /* \"#utility.yul\":1218:1283   */\n      tag_64\n      jump\t// in\n    tag_118:\n        /* \"#utility.yul\":1308:1337   */\n      tag_119\n        /* \"#utility.yul\":1330:1336   */\n      dup2\n        /* \"#utility.yul\":1308:1337   */\n      tag_65\n      jump\t// in\n    tag_119:\n        /* \"#utility.yul\":1303:1306   */\n      dup5\n        /* \"#utility.yul\":1299:1338   */\n      add\n        /* \"#utility.yul\":1292:1338   */\n      swap2\n      pop\n        /* \"#utility.yul\":1059:1344   */\n      pop\n        /* \"#utility.yul\":967:1344   */\n      swap3\n      swap2\n      pop\n      pop\n      jump\t// out\n        /* \"#utility.yul\":1350:1663   */\n    tag_19:\n        /* \"#utility.yul\":1463:1467   */\n      0x00\n        /* \"#utility.yul\":1501:1503   */\n      0x20\n        /* \"#utility.yul\":1490:1499   */\n      dup3\n        /* \"#utility.yul\":1486:1504   */\n      add\n        /* \"#utility.yul\":1478:1504   */\n      swap1\n      pop\n        /* \"#utility.yul\":1550:1559   */\n      dup2\n        /* \"#utility.yul\":1544:1548   */\n      dup2\n        /* \"#utility.yul\":1540:1560   */\n      sub\n        /* \"#utility.yul\":1536:1537   */\n      0x00\n        /* \"#utility.yul\":1525:1534   */\n      dup4\n        /* \"#utility.yul\":1521:1538   */\n      add\n        /* \"#utility.yul\":1514:1561   */\n      mstore\n        /* \"#utility.yul\":1578:1656   */\n      tag_121\n        /* \"#utility.yul\":1651:1655   */\n      dup2\n        /* \"#utility.yul\":1642:1648   */\n      dup5\n        /* \"#utility.yul\":1578:1656   */\n      tag_66\n      jump\t// in\n    tag_121:\n        /* \"#utility.yul\":1570:1656   */\n      swap1\n      pop\n        /* \"#utility.yul\":1350:1663   */\n      swap3\n      swap2\n      pop\n      pop\n      jump\t// out\n        /* \"#utility.yul\":1669:1744   */\n    tag_67:\n        /* \"#utility.yul\":1702:1708   */\n      0x00\n        /* \"#utility.yul\":1735:1737   */\n      0x40\n        /* \"#utility.yul\":1729:1738   */\n      mload\n        /* \"#utility.yul\":1719:1738   */\n      swap1\n      pop\n        /* \"#utility.yul\":1669:1744   */\n      swap1\n      jump\t// out\n        /* \"#utility.yul\":1750:1867   */\n    tag_68:\n        /* \"#utility.yul\":1859:1860   */\n      0x00\n        /* \"#utility.yul\":1856:1857   */\n      dup1\n        /* \"#utility.yul\":1849:1861   */\n      revert\n        /* \"#utility.yul\":1873:1990   */\n    tag_69:\n        /* \"#utility.yul\":1982:1983   */\n      0x00\n        /* \"#utility.yul\":1979:1980   */\n      dup1\n        /* \"#utility.yul\":1972:1984   */\n      revert\n        /* \"#utility.yul\":1996:2112   */\n    tag_70:\n        /* \"#utility.yul\":2066:2087   */\n      tag_126\n        /* \"#utility.yul\":2081:2086   */\n      dup2\n        /* \"#utility.yul\":2066:2087   */\n      tag_60\n      jump\t// in\n    tag_126:\n        /* \"#utility.yul\":2059:2064   */\n      dup2\n        /* \"#utility.yul\":2056:2088   */\n      eq\n        /* \"#utility.yul\":2046:2106   */\n      tag_127\n      jumpi\n        /* \"#utility.yul\":2102:2103   */\n      0x00\n        /* \"#utility.yul\":2099:2100   */\n      dup1\n        /* \"#utility.yul\":2092:2104   */\n      revert\n        /* \"#utility.yul\":2046:2106   */\n    tag_127:\n        /* \"#utility.yul\":1996:2112   */\n      pop\n      jump\t// out\n        /* \"#utility.yul\":2118:2251   */\n    tag_71:\n        /* \"#utility.yul\":2161:2166   */\n      0x00\n        /* \"#utility.yul\":2199:2205   */\n      dup2\n        /* \"#utility.yul\":2186:2206   */\n      calldataload\n        /* \"#utility.yul\":2177:2206   */\n      swap1\n      pop\n        /* \"#utility.yul\":2215:2245   */\n      tag_129\n        /* \"#utility.yul\":2239:2244   */\n      dup2\n        /* \"#utility.yul\":2215:2245   */\n      tag_70\n      jump\t// in\n    tag_129:\n        /* \"#utility.yul\":2118:2251   */\n      swap3\n      swap2\n      pop\n      pop\n      jump\t// out\n        /* \"#utility.yul\":2257:2580   */\n    tag_22:\n        /* \"#utility.yul\":2313:2319   */\n      0x00\n        /* \"#utility.yul\":2362:2364   */\n      0x20\n        /* \"#utility.yul\":2350:2359   */\n      dup3\n        /* \"#utility.yul\":2341:2348   */\n      dup5\n        /* \"#utility.yul\":2337:2360   */\n      sub\n        /* \"#utility.yul\":2333:2365   */\n      slt\n        /* \"#utility.yul\":2330:2449   */\n      iszero\n      tag_131\n      jumpi\n        /* \"#utility.yul\":2368:2447   */\n      tag_132\n      tag_68\n      jump\t// in\n    tag_132:\n        /* \"#utility.yul\":2330:2449   */\n    tag_131:\n        /* \"#utility.yul\":2488:2489   */\n      0x00\n        /* \"#utility.yul\":2513:2563   */\n      tag_133\n        /* \"#utility.yul\":2555:2562   */\n      dup5\n        /* \"#utility.yul\":2546:2552   */\n      dup3\n        /* \"#utility.yul\":2535:2544   */\n      dup6\n        /* \"#utility.yul\":2531:2553   */\n      add\n        /* \"#utility.yul\":2513:2563   */\n      tag_71\n      jump\t// in\n    tag_133:\n        /* \"#utility.yul\":2503:2563   */\n      swap2\n      pop\n        /* \"#utility.yul\":2459:2573   */\n      pop\n        /* \"#utility.yul\":2257:2580   */\n      swap3\n      swap2\n      pop\n      pop\n      jump\t// out\n        /* \"#utility.yul\":2586:2663   */\n    tag_72:\n        /* \"#utility.yul\":2623:2630   */\n      0x00\n        /* \"#utility.yul\":2652:2657   */\n      dup2\n        /* \"#utility.yul\":2641:2657   */\n      swap1\n      pop\n        /* \"#utility.yul\":2586:2663   */\n      swap2\n      swap1\n      pop\n      jump\t// out\n        /* \"#utility.yul\":2669:2787   */\n    tag_73:\n        /* \"#utility.yul\":2756:2780   */\n      tag_136\n        /* \"#utility.yul\":2774:2779   */\n      dup2\n        /* \"#utility.yul\":2756:2780   */\n      tag_72\n      jump\t// in\n    tag_136:\n        /* \"#utility.yul\":2751:2754   */\n      dup3\n        /* \"#utility.yul\":2744:2781   */\n      mstore\n        /* \"#utility.yul\":2669:2787   */\n      pop\n      pop\n      jump\t// out\n        /* \"#utility.yul\":2793:3015   */\n    tag_27:\n        /* \"#utility.yul\":2886:2890   */\n      0x00\n        /* \"#utility.yul\":2924:2926   */\n      0x20\n        /* \"#utility.yul\":2913:2922   */\n      dup3\n        /* \"#utility.yul\":2909:2927   */\n      add\n        /* \"#utility.yul\":2901:2927   */\n      swap1\n      pop\n        /* \"#utility.yul\":2937:3008   */\n      tag_138\n        /* \"#utility.yul\":3005:3006   */\n      0x00\n        /* \"#utility.yul\":2994:3003   */\n      dup4\n        /* \"#utility.yul\":2990:3007   */\n      add\n        /* \"#utility.yul\":2981:2987   */\n      dup5\n        /* \"#utility.yul\":2937:3008   */\n      tag_73\n      jump\t// in\n    tag_138:\n        /* \"#utility.yul\":2793:3015   */\n      swap3\n      swap2\n      pop\n      pop\n      jump\t// out\n        /* \"#utility.yul\":3021:3097   */\n    tag_74:\n        /* \"#utility.yul\":3057:3064   */\n      0x00\n        /* \"#utility.yul\":3086:3091   */\n      dup2\n        /* \"#utility.yul\":3075:3091   */\n      swap1\n      pop\n        /* \"#utility.yul\":3021:3097   */\n      swap2\n      swap1\n      pop\n      jump\t// out\n        /* \"#utility.yul\":3103:3223   */\n    tag_75:\n        /* \"#utility.yul\":3175:3198   */\n      tag_141\n        /* \"#utility.yul\":3192:3197   */\n      dup2\n        /* \"#utility.yul\":3175:3198   */\n      tag_74\n      jump\t// in\n    tag_141:\n        /* \"#utility.yul\":3168:3173   */\n      dup2\n        /* \"#utility.yul\":3165:3199   */\n      eq\n        /* \"#utility.yul\":3155:3217   */\n      tag_142\n      jumpi\n        /* \"#utility.yul\":3213:3214   */\n      0x00\n        /* \"#utility.yul\":3210:3211   */\n      dup1\n        /* \"#utility.yul\":3203:3215   */\n      revert\n        /* \"#utility.yul\":3155:3217   */\n    tag_142:\n        /* \"#utility.yul\":3103:3223   */\n      pop\n      jump\t// out\n        /* \"#utility.yul\":3229:3366   */\n    tag_76:\n        /* \"#utility.yul\":3274:3279   */\n      0x00\n        /* \"#utility.yul\":3312:3318   */\n      dup2\n        /* \"#utility.yul\":3299:3319   */\n      calldataload\n        /* \"#utility.yul\":3290:3319   */\n      swap1\n      pop\n        /* \"#utility.yul\":3328:3360   */\n      tag_144\n        /* \"#utility.yul\":3354:3359   */\n      dup2\n        /* \"#utility.yul\":3328:3360   */\n      tag_75\n      jump\t// in\n    tag_144:\n        /* \"#utility.yul\":3229:3366   */\n      swap3\n      swap2\n      pop\n      pop\n      jump\t// out\n        /* \"#utility.yul\":3372:3699   */\n    tag_30:\n        /* \"#utility.yul\":3430:3436   */\n      0x00\n        /* \"#utility.yul\":3479:3481   */\n      0x20\n        /* \"#utility.yul\":3467:3476   */\n      dup3\n        /* \"#utility.yul\":3458:3465   */\n      dup5\n        /* \"#utility.yul\":3454:3477   */\n      sub\n        /* \"#utility.yul\":3450:3482   */\n      slt\n        /* \"#utility.yul\":3447:3566   */\n      iszero\n      tag_146\n      jumpi\n        /* \"#utility.yul\":3485:3564   */\n      tag_147\n      tag_68\n      jump\t// in\n    tag_147:\n        /* \"#utility.yul\":3447:3566   */\n    tag_146:\n        /* \"#utility.yul\":3605:3606   */\n      0x00\n        /* \"#utility.yul\":3630:3682   */\n      tag_148\n        /* \"#utility.yul\":3674:3681   */\n      dup5\n        /* \"#utility.yul\":3665:3671   */\n      dup3\n        /* \"#utility.yul\":3654:3663   */\n      dup6\n        /* \"#utility.yul\":3650:3672   */\n      add\n        /* \"#utility.yul\":3630:3682   */\n      tag_76\n      jump\t// in\n    tag_148:\n        /* \"#utility.yul\":3620:3682   */\n      swap2\n      pop\n        /* \"#utility.yul\":3576:3692   */\n      pop\n        /* \"#utility.yul\":3372:3699   */\n      swap3\n      swap2\n      pop\n      pop\n      jump\t// out\n        /* \"#utility.yul\":3705:3822   */\n    tag_77:\n        /* \"#utility.yul\":3814:3815   */\n      0x00\n        /* \"#utility.yul\":3811:3812   */\n      dup1\n        /* \"#utility.yul\":3804:3816   */\n      revert\n        /* \"#utility.yul\":3828:3945   */\n    tag_78:\n        /* \"#utility.yul\":3937:3938   */\n      0x00\n        /* \"#utility.yul\":3934:3935   */\n      dup1\n        /* \"#utility.yul\":3927:3939   */\n      revert\n        /* \"#utility.yul\":3951:4131   */\n    tag_79:\n        /* \"#utility.yul\":3999:4076   */\n      0x4e487b7100000000000000000000000000000000000000000000000000000000\n        /* \"#utility.yul\":3996:3997   */\n      0x00\n        /* \"#utility.yul\":3989:4077   */\n      mstore\n        /* \"#utility.yul\":4096:4100   */\n      0x41\n        /* \"#utility.yul\":4093:4094   */\n      0x04\n        /* \"#utility.yul\":4086:4101   */\n      mstore\n        /* \"#utility.yul\":4120:4124   */\n      0x24\n        /* \"#utility.yul\":4117:4118   */\n      0x00\n        /* \"#utility.yul\":4110:4125   */\n      revert\n        /* \"#utility.yul\":4137:4418   */\n    tag_80:\n        /* \"#utility.yul\":4220:4247   */\n      tag_153\n        /* \"#utility.yul\":4242:4246   */\n      dup3\n        /* \"#utility.yul\":4220:4247   */\n      tag_65\n      jump\t// in\n    tag_153:\n        /* \"#utility.yul\":4212:4218   */\n      dup2\n        /* \"#utility.yul\":4208:4248   */\n      add\n        /* \"#utility.yul\":4350:4356   */\n      dup2\n        /* \"#utility.yul\":4338:4348   */\n      dup2\n        /* \"#utility.yul\":4335:4357   */\n      lt\n        /* \"#utility.yul\":4314:4332   */\n      0xffffffffffffffff\n        /* \"#utility.yul\":4302:4312   */\n      dup3\n        /* \"#utility.yul\":4299:4333   */\n      gt\n        /* \"#utility.yul\":4296:4358   */\n      or\n        /* \"#utility.yul\":4293:4381   */\n      iszero\n      tag_154\n      jumpi\n        /* \"#utility.yul\":4361:4379   */\n      tag_155\n      tag_79\n      jump\t// in\n    tag_155:\n        /* \"#utility.yul\":4293:4381   */\n    tag_154:\n        /* \"#utility.yul\":4401:4411   */\n      dup1\n        /* \"#utility.yul\":4397:4399   */\n      0x40\n        /* \"#utility.yul\":4390:4412   */\n      mstore\n        /* \"#utility.yul\":4180:4418   */\n      pop\n        /* \"#utility.yul\":4137:4418   */\n      pop\n      pop\n      jump\t// out\n        /* \"#utility.yul\":4424:4553   */\n    tag_81:\n        /* \"#utility.yul\":4458:4464   */\n      0x00\n        /* \"#utility.yul\":4485:4505   */\n      tag_157\n      tag_67\n      jump\t// in\n    tag_157:\n        /* \"#utility.yul\":4475:4505   */\n      swap1\n      pop\n        /* \"#utility.yul\":4514:4547   */\n      tag_158\n        /* \"#utility.yul\":4542:4546   */\n      dup3\n        /* \"#utility.yul\":4534:4540   */\n      dup3\n        /* \"#utility.yul\":4514:4547   */\n      tag_80\n      jump\t// in\n    tag_158:\n        /* \"#utility.yul\":4424:4553   */\n      swap2\n      swap1\n      pop\n      jump\t// out\n        /* \"#utility.yul\":4559:4867   */\n    tag_82:\n        /* \"#utility.yul\":4621:4625   */\n      0x00\n        /* \"#utility.yul\":4711:4729   */\n      0xffffffffffffffff\n        /* \"#utility.yul\":4703:4709   */\n      dup3\n        /* \"#utility.yul\":4700:4730   */\n      gt\n        /* \"#utility.yul\":4697:4753   */\n      iszero\n      tag_160\n      jumpi\n        /* \"#utility.yul\":4733:4751   */\n      tag_161\n      tag_79\n      jump\t// in\n    tag_161:\n        /* \"#utility.yul\":4697:4753   */\n    tag_160:\n        /* \"#utility.yul\":4771:4800   */\n      tag_162\n        /* \"#utility.yul\":4793:4799   */\n      dup3\n        /* \"#utility.yul\":4771:4800   */\n      tag_65\n      jump\t// in\n    tag_162:\n        /* \"#utility.yul\":4763:4800   */\n      swap1\n      pop\n        /* \"#utility.yul\":4855:4859   */\n      0x20\n        /* \"#utility.yul\":4849:4853   */\n      dup2\n        /* \"#utility.yul\":4845:4860   */\n      add\n        /* \"#utility.yul\":4837:4860   */\n      swap1\n      pop\n        /* \"#utility.yul\":4559:4867   */\n      swap2\n      swap1\n      pop\n      jump\t// out\n        /* \"#utility.yul\":4873:5021   */\n    tag_83:\n        /* \"#utility.yul\":4971:4977   */\n      dup3\n        /* \"#utility.yul\":4966:4969   */\n      dup2\n        /* \"#utility.yul\":4961:4964   */\n      dup4\n        /* \"#utility.yul\":4948:4978   */\n      calldatacopy\n        /* \"#utility.yul\":5012:5013   */\n      0x00\n        /* \"#utility.yul\":5003:5009   */\n      dup4\n        /* \"#utility.yul\":4998:5001   */\n      dup4\n        /* \"#utility.yul\":4994:5010   */\n      add\n        /* \"#utility.yul\":4987:5014   */\n      mstore\n        /* \"#utility.yul\":4873:5021   */\n      pop\n      pop\n      pop\n      jump\t// out\n        /* \"#utility.yul\":5027:5452   */\n    tag_84:\n        /* \"#utility.yul\":5105:5110   */\n      0x00\n        /* \"#utility.yul\":5130:5196   */\n      tag_165\n        /* \"#utility.yul\":5146:5195   */\n      tag_166\n        /* \"#utility.yul\":5188:5194   */\n      dup5\n        /* \"#utility.yul\":5146:5195   */\n      tag_82\n      jump\t// in\n    tag_166:\n        /* \"#utility.yul\":5130:5196   */\n      tag_81\n      jump\t// in\n    tag_165:\n        /* \"#utility.yul\":5121:5196   */\n      swap1\n      pop\n        /* \"#utility.yul\":5219:5225   */\n      dup3\n        /* \"#utility.yul\":5212:5217   */\n      dup2\n        /* \"#utility.yul\":5205:5226   */\n      mstore\n        /* \"#utility.yul\":5257:5261   */\n      0x20\n        /* \"#utility.yul\":5250:5255   */\n      dup2\n        /* \"#utility.yul\":5246:5262   */\n      add\n        /* \"#utility.yul\":5295:5298   */\n      dup5\n        /* \"#utility.yul\":5286:5292   */\n      dup5\n        /* \"#utility.yul\":5281:5284   */\n      dup5\n        /* \"#utility.yul\":5277:5293   */\n      add\n        /* \"#utility.yul\":5274:5299   */\n      gt\n        /* \"#utility.yul\":5271:5383   */\n      iszero\n      tag_167\n      jumpi\n        /* \"#utility.yul\":5302:5381   */\n      tag_168\n      tag_78\n      jump\t// in\n    tag_168:\n        /* \"#utility.yul\":5271:5383   */\n    tag_167:\n        /* \"#utility.yul\":5392:5446   */\n      tag_169\n        /* \"#utility.yul\":5439:5445   */\n      dup5\n        /* \"#utility.yul\":5434:5437   */\n      dup3\n        /* \"#utility.yul\":5429:5432   */\n      dup6\n        /* \"#utility.yul\":5392:5446   */\n      tag_83\n      jump\t// in\n    tag_169:\n        /* \"#utility.yul\":5111:5452   */\n      pop\n        /* \"#utility.yul\":5027:5452   */\n      swap4\n      swap3\n      pop\n      pop\n      pop\n      jump\t// out\n        /* \"#utility.yul\":5472:5812   */\n    tag_85:\n        /* \"#utility.yul\":5528:5533   */\n      0x00\n        /* \"#utility.yul\":5577:5580   */\n      dup3\n        /* \"#utility.yul\":5570:5574   */\n      0x1f\n        /* \"#utility.yul\":5562:5568   */\n      dup4\n        /* \"#utility.yul\":5558:5575   */\n      add\n        /* \"#utility.yul\":5554:5581   */\n      slt\n        /* \"#utility.yul\":5544:5666   */\n      tag_171\n      jumpi\n        /* \"#utility.yul\":5585:5664   */\n      tag_172\n      tag_77\n      jump\t// in\n    tag_172:\n        /* \"#utility.yul\":5544:5666   */\n    tag_171:\n        /* \"#utility.yul\":5702:5708   */\n      dup2\n        /* \"#utility.yul\":5689:5709   */\n      calldataload\n        /* \"#utility.yul\":5727:5806   */\n      tag_173\n        /* \"#utility.yul\":5802:5805   */\n      dup5\n        /* \"#utility.yul\":5794:5800   */\n      dup3\n        /* \"#utility.yul\":5787:5791   */\n      0x20\n        /* \"#utility.yul\":5779:5785   */\n      dup7\n        /* \"#utility.yul\":5775:5792   */\n      add\n        /* \"#utility.yul\":5727:5806   */\n      tag_84\n      jump\t// in\n    tag_173:\n        /* \"#utility.yul\":5718:5806   */\n      swap2\n      pop\n        /* \"#utility.yul\":5534:5812   */\n      pop\n        /* \"#utility.yul\":5472:5812   */\n      swap3\n      swap2\n      pop\n      pop\n      jump\t// out\n        /* \"#utility.yul\":5818:6327   */\n    tag_34:\n        /* \"#utility.yul\":5887:5893   */\n      0x00\n        /* \"#utility.yul\":5936:5938   */\n      0x20\n        /* \"#utility.yul\":5924:5933   */\n      dup3\n        /* \"#utility.yul\":5915:5922   */\n      dup5\n        /* \"#utility.yul\":5911:5934   */\n      sub\n        /* \"#utility.yul\":5907:5939   */\n      slt\n        /* \"#utility.yul\":5904:6023   */\n      iszero\n      tag_175\n      jumpi\n        /* \"#utility.yul\":5942:6021   */\n      tag_176\n      tag_68\n      jump\t// in\n    tag_176:\n        /* \"#utility.yul\":5904:6023   */\n    tag_175:\n        /* \"#utility.yul\":6090:6091   */\n      0x00\n        /* \"#utility.yul\":6079:6088   */\n      dup3\n        /* \"#utility.yul\":6075:6092   */\n      add\n        /* \"#utility.yul\":6062:6093   */\n      calldataload\n        /* \"#utility.yul\":6120:6138   */\n      0xffffffffffffffff\n        /* \"#utility.yul\":6112:6118   */\n      dup2\n        /* \"#utility.yul\":6109:6139   */\n      gt\n        /* \"#utility.yul\":6106:6223   */\n      iszero\n      tag_177\n      jumpi\n        /* \"#utility.yul\":6142:6221   */\n      tag_178\n      tag_69\n      jump\t// in\n    tag_178:\n        /* \"#utility.yul\":6106:6223   */\n    tag_177:\n        /* \"#utility.yul\":6247:6310   */\n      tag_179\n        /* \"#utility.yul\":6302:6309   */\n      dup5\n        /* \"#utility.yul\":6293:6299   */\n      dup3\n        /* \"#utility.yul\":6282:6291   */\n      dup6\n        /* \"#utility.yul\":6278:6300   */\n      add\n        /* \"#utility.yul\":6247:6310   */\n      tag_85\n      jump\t// in\n    tag_179:\n        /* \"#utility.yul\":6237:6310   */\n      swap2\n      pop\n        /* \"#utility.yul\":6033:6320   */\n      pop\n        /* \"#utility.yul\":5818:6327   */\n      swap3\n      swap2\n      pop\n      pop\n      jump\t// out\n        /* \"#utility.yul\":6333:6455   */\n    tag_86:\n        /* \"#utility.yul\":6406:6430   */\n      tag_181\n        /* \"#utility.yul\":6424:6429   */\n      dup2\n        /* \"#utility.yul\":6406:6430   */\n      tag_72\n      jump\t// in\n    tag_181:\n        /* \"#utility.yul\":6399:6404   */\n      dup2\n        /* \"#utility.yul\":6396:6431   */\n      eq\n        /* \"#utility.yul\":6386:6449   */\n      tag_182\n      jumpi\n        /* \"#utility.yul\":6445:6446   */\n      0x00\n        /* \"#utility.yul\":6442:6443   */\n      dup1\n        /* \"#utility.yul\":6435:6447   */\n      revert\n        /* \"#utility.yul\":6386:6449   */\n    tag_182:\n        /* \"#utility.yul\":6333:6455   */\n      pop\n      jump\t// out\n        /* \"#utility.yul\":6461:6600   */\n    tag_87:\n        /* \"#utility.yul\":6507:6512   */\n      0x00\n        /* \"#utility.yul\":6545:6551   */\n      dup2\n        /* \"#utility.yul\":6532:6552   */\n      calldataload\n        /* \"#utility.yul\":6523:6552   */\n      swap1\n      pop\n        /* \"#utility.yul\":6561:6594   */\n      tag_184\n        /* \"#utility.yul\":6588:6593   */\n      dup2\n        /* \"#utility.yul\":6561:6594   */\n      tag_86\n      jump\t// in\n    tag_184:\n        /* \"#utility.yul\":6461:6600   */\n      swap3\n      swap2\n      pop\n      pop\n      jump\t// out\n        /* \"#utility.yul\":6606:6935   */\n    tag_38:\n        /* \"#utility.yul\":6665:6671   */\n      0x00\n        /* \"#utility.yul\":6714:6716   */\n      0x20\n        /* \"#utility.yul\":6702:6711   */\n      dup3\n        /* \"#utility.yul\":6693:6700   */\n      dup5\n        /* \"#utility.yul\":6689:6712   */\n      sub\n        /* \"#utility.yul\":6685:6717   */\n      slt\n        /* \"#utility.yul\":6682:6801   */\n      iszero\n      tag_186\n      jumpi\n        /* \"#utility.yul\":6720:6799   */\n      tag_187\n      tag_68\n      jump\t// in\n    tag_187:\n        /* \"#utility.yul\":6682:6801   */\n    tag_186:\n        /* \"#utility.yul\":6840:6841   */\n      0x00\n        /* \"#utility.yul\":6865:6918   */\n      tag_188\n        /* \"#utility.yul\":6910:6917   */\n      dup5\n        /* \"#utility.yul\":6901:6907   */\n      dup3\n        /* \"#utility.yul\":6890:6899   */\n      dup6\n        /* \"#utility.yul\":6886:6908   */\n      add\n        /* \"#utility.yul\":6865:6918   */\n      tag_87\n      jump\t// in\n    tag_188:\n        /* \"#utility.yul\":6855:6918   */\n      swap2\n      pop\n        /* \"#utility.yul\":6811:6928   */\n      pop\n        /* \"#utility.yul\":6606:6935   */\n      swap3\n      swap2\n      pop\n      pop\n      jump\t// out\n        /* \"#utility.yul\":6941:7056   */\n    tag_88:\n        /* \"#utility.yul\":7026:7049   */\n      tag_190\n        /* \"#utility.yul\":7043:7048   */\n      dup2\n        /* \"#utility.yul\":7026:7049   */\n      tag_74\n      jump\t// in\n    tag_190:\n        /* \"#utility.yul\":7021:7024   */\n      dup3\n        /* \"#utility.yul\":7014:7050   */\n      mstore\n        /* \"#utility.yul\":6941:7056   */\n      pop\n      pop\n      jump\t// out\n        /* \"#utility.yul\":7062:7280   */\n    tag_43:\n        /* \"#utility.yul\":7153:7157   */\n      0x00\n        /* \"#utility.yul\":7191:7193   */\n      0x20\n        /* \"#utility.yul\":7180:7189   */\n      dup3\n        /* \"#utility.yul\":7176:7194   */\n      add\n        /* \"#utility.yul\":7168:7194   */\n      swap1\n      pop\n        /* \"#utility.yul\":7204:7273   */\n      tag_192\n        /* \"#utility.yul\":7270:7271   */\n      0x00\n        /* \"#utility.yul\":7259:7268   */\n      dup4\n        /* \"#utility.yul\":7255:7272   */\n      add\n        /* \"#utility.yul\":7246:7252   */\n      dup5\n        /* \"#utility.yul\":7204:7273   */\n      tag_88\n      jump\t// in\n    tag_192:\n        /* \"#utility.yul\":7062:7280   */\n      swap3\n      swap2\n      pop\n      pop\n      jump\t// out\n        /* \"#utility.yul\":7286:7466   */\n    tag_89:\n        /* \"#utility.yul\":7334:7411   */\n      0x4e487b7100000000000000000000000000000000000000000000000000000000\n        /* \"#utility.yul\":7331:7332   */\n      0x00\n        /* \"#utility.yul\":7324:7412   */\n      mstore\n        /* \"#utility.yul\":7431:7435   */\n      0x22\n        /* \"#utility.yul\":7428:7429   */\n      0x04\n        /* \"#utility.yul\":7421:7436   */\n      mstore\n        /* \"#utility.yul\":7455:7459   */\n      0x24\n        /* \"#utility.yul\":7452:7453   */\n      0x00\n        /* \"#utility.yul\":7445:7460   */\n      revert\n        /* \"#utility.yul\":7472:7792   */\n    tag_47:\n        /* \"#utility.yul\":7516:7522   */\n      0x00\n        /* \"#utility.yul\":7553:7554   */\n      0x02\n        /* \"#utility.yul\":7547:7551   */\n      dup3\n        /* \"#utility.yul\":7543:7555   */\n      div\n        /* \"#utility.yul\":7533:7555   */\n      swap1\n      pop\n        /* \"#utility.yul\":7600:7601   */\n      0x01\n        /* \"#utility.yul\":7594:7598   */\n      dup3\n        /* \"#utility.yul\":7590:7602   */\n      and\n        /* \"#utility.yul\":7621:7639   */\n      dup1\n        /* \"#utility.yul\":7611:7692   */\n      tag_195\n      jumpi\n        /* \"#utility.yul\":7677:7681   */\n      0x7f\n        /* \"#utility.yul\":7669:7675   */\n      dup3\n        /* \"#utility.yul\":7665:7682   */\n      and\n        /* \"#utility.yul\":7655:7682   */\n      swap2\n      pop\n        /* \"#utility.yul\":7611:7692   */\n    tag_195:\n        /* \"#utility.yul\":7739:7741   */\n      0x20\n        /* \"#utility.yul\":7731:7737   */\n      dup3\n        /* \"#utility.yul\":7728:7742   */\n      lt\n        /* \"#utility.yul\":7708:7726   */\n      dup2\n        /* \"#utility.yul\":7705:7743   */\n      sub\n        /* \"#utility.yul\":7702:7786   */\n      tag_196\n      jumpi\n        /* \"#utility.yul\":7758:7776   */\n      tag_197\n      tag_89\n      jump\t// in\n    tag_197:\n        /* \"#utility.yul\":7702:7786   */\n    tag_196:\n        /* \"#utility.yul\":7523:7792   */\n      pop\n        /* \"#utility.yul\":7472:7792   */\n      swap2\n      swap1\n      pop\n      jump\t// out\n        /* \"#utility.yul\":7798:7939   */\n    tag_90:\n        /* \"#utility.yul\":7847:7851   */\n      0x00\n        /* \"#utility.yul\":7870:7873   */\n      dup2\n        /* \"#utility.yul\":7862:7873   */\n      swap1\n      pop\n        /* \"#utility.yul\":7893:7896   */\n      dup2\n        /* \"#utility.yul\":7890:7891   */\n      0x00\n        /* \"#utility.yul\":7883:7897   */\n      mstore\n        /* \"#utility.yul\":7927:7931   */\n      0x20\n        /* \"#utility.yul\":7924:7925   */\n      0x00\n        /* \"#utility.yul\":7914:7932   */\n      keccak256\n        /* \"#utility.yul\":7906:7932   */\n      swap1\n      pop\n        /* \"#utility.yul\":7798:7939   */\n      swap2\n      swap1\n      pop\n      jump\t// out\n        /* \"#utility.yul\":7945:8038   */\n    tag_91:\n        /* \"#utility.yul\":7982:7988   */\n      0x00\n        /* \"#utility.yul\":8029:8031   */\n      0x20\n        /* \"#utility.yul\":8024:8026   */\n      0x1f\n        /* \"#utility.yul\":8017:8022   */\n      dup4\n        /* \"#utility.yul\":8013:8027   */\n      add\n        /* \"#utility.yul\":8009:8032   */\n      div\n        /* \"#utility.yul\":7999:8032   */\n      swap1\n      pop\n        /* \"#utility.yul\":7945:8038   */\n      swap2\n      swap1\n      pop\n      jump\t// out\n        /* \"#utility.yul\":8044:8151   */\n    tag_92:\n        /* \"#utility.yul\":8088:8096   */\n      0x00\n        /* \"#utility.yul\":8138:8143   */\n      dup3\n        /* \"#utility.yul\":8132:8136   */\n      dup3\n        /* \"#utility.yul\":8128:8144   */\n      shl\n        /* \"#utility.yul\":8107:8144   */\n      swap1\n      pop\n        /* \"#utility.yul\":8044:8151   */\n      swap3\n      swap2\n      pop\n      pop\n      jump\t// out\n        /* \"#utility.yul\":8157:8550   */\n    tag_93:\n        /* \"#utility.yul\":8226:8232   */\n      0x00\n        /* \"#utility.yul\":8276:8277   */\n      0x08\n        /* \"#utility.yul\":8264:8274   */\n      dup4\n        /* \"#utility.yul\":8260:8278   */\n      mul\n        /* \"#utility.yul\":8299:8396   */\n      tag_202\n        /* \"#utility.yul\":8329:8395   */\n      0xffffffffffffffffffffffffffffffffffffffffffffffffffffffffffffffff\n        /* \"#utility.yul\":8318:8327   */\n      dup3\n        /* \"#utility.yul\":8299:8396   */\n      tag_92\n      jump\t// in\n    tag_202:\n        /* \"#utility.yul\":8417:8456   */\n      tag_203\n        /* \"#utility.yul\":8447:8455   */\n      dup7\n        /* \"#utility.yul\":8436:8445   */\n      dup4\n        /* \"#utility.yul\":8417:8456   */\n      tag_92\n      jump\t// in\n    tag_203:\n        /* \"#utility.yul\":8405:8456   */\n      swap6\n      pop\n        /* \"#utility.yul\":8489:8493   */\n      dup1\n        /* \"#utility.yul\":8485:8494   */\n      not\n        /* \"#utility.yul\":8478:8483   */\n      dup5\n        /* \"#utility.yul\":8474:8495   */\n      and\n        /* \"#utility.yul\":8465:8495   */\n      swap4\n      pop\n        /* \"#utility.yul\":8538:8542   */\n      dup1\n        /* \"#utility.yul\":8528:8536   */\n      dup7\n        /* \"#utility.yul\":8524:8543   */\n      and\n        /* \"#utility.yul\":8517:8522   */\n      dup5\n        /* \"#utility.yul\":8514:8544   */\n      or\n        /* \"#utility.yul\":8504:8544   */\n      swap3\n      pop\n        /* \"#utility.yul\":8233:8550   */\n      pop\n      pop\n        /* \"#utility.yul\":8157:8550   */\n      swap4\n      swap3\n      pop\n      pop\n      pop\n      jump\t// out\n        /* \"#utility.yul\":8556:8616   */\n    tag_94:\n        /* \"#utility.yul\":8584:8587   */\n      0x00\n        /* \"#utility.yul\":8605:8610   */\n      dup2\n        /* \"#utility.yul\":8598:8610   */\n      swap1\n      pop\n        /* \"#utility.yul\":8556:8616   */\n      swap2\n      swap1\n      pop\n      jump\t// out\n        /* \"#utility.yul\":8622:8764   */\n    tag_95:\n        /* \"#utility.yul\":8672:8681   */\n      0x00\n        /* \"#utility.yul\":8705:8758   */\n      tag_206\n        /* \"#utility.yul\":8723:8757   */\n      tag_207\n        /* \"#utility.yul\":8732:8756   */\n      tag_208\n        /* \"#utility.yul\":8750:8755   */\n      dup5\n        /* \"#utility.yul\":8732:8756   */\n      tag_72\n      jump\t// in\n    tag_208:\n        /* \"#utility.yul\":8723:8757   */\n      tag_94\n      jump\t// in\n    tag_207:\n        /* \"#utility.yul\":8705:8758   */\n      tag_72\n      jump\t// in\n    tag_206:\n        /* \"#utility.yul\":8692:8758   */\n      swap1\n      pop\n        /* \"#utility.yul\":8622:8764   */\n      swap2\n      swap1\n      pop\n      jump\t// out\n        /* \"#utility.yul\":8770:8845   */\n    tag_96:\n        /* \"#utility.yul\":8813:8816   */\n      0x00\n        /* \"#utility.yul\":8834:8839   */\n      dup2\n        /* \"#utility.yul\":8827:8839   */\n      swap1\n      pop\n        /* \"#utility.yul\":8770:8845   */\n      swap2\n      swap1\n      pop\n      jump\t// out\n        /* \"#utility.yul\":8851:9120   */\n    tag_97:\n        /* \"#utility.yul\":8961:9000   */\n      tag_211\n        /* \"#utility.yul\":8992:8999   */\n      dup4\n        /* \"#utility.yul\":8961:9000   */\n      tag_95\n      jump\t// in\n    tag_211:\n        /* \"#utility.yul\":9022:9113   */\n      tag_212\n        /* \"#utility.yul\":9071:9112   */\n      tag_213\n        /* \"#utility.yul\":9095:9111   */\n      dup3\n        /* \"#utility.yul\":9071:9112   */\n      tag_96\n      jump\t// in\n    tag_213:\n        /* \"#utility.yul\":9063:9069   */\n      dup5\n        /* \"#utility.yul\":9056:9060   */\n      dup5\n        /* \"#utility.yul\":9050:9061   */\n      sload\n        /* \"#utility.yul\":9022:9113   */\n      tag_93\n      jump\t// in\n    tag_212:\n        /* \"#utility.yul\":9016:9020   */\n      dup3\n        /* \"#utility.yul\":9009:9114   */\n      sstore\n        /* \"#utility.yul\":8927:9120   */\n      pop\n        /* \"#utility.yul\":8851:9120   */\n      pop\n      pop\n      pop\n      jump\t// out\n        /* \"#utility.yul\":9126:9199   */\n    tag_98:\n        /* \"#utility.yul\":9171:9174   */\n      0x00\n        /* \"#utility.yul\":9126:9199   */\n      swap1\n      jump\t// out\n        /* \"#utility.yul\":9205:9394   */\n    tag_99:\n        /* \"#utility.yul\":9282:9314   */\n      tag_216\n      tag_98\n      jump\t// in\n    tag_216:\n        /* \"#utility.yul\":9323:9388   */\n      tag_217\n        /* \"#utility.yul\":9381:9387   */\n      dup2\n        /* \"#utility.yul\":9373:9379   */\n      dup5\n        /* \"#utility.yul\":9367:9371   */\n      dup5\n        /* \"#utility.yul\":9323:9388   */\n      tag_97\n      jump\t// in\n    tag_217:\n        /* \"#utility.yul\":9258:9394   */\n      pop\n        /* \"#utility.yul\":9205:9394   */\n      pop\n      pop\n      jump\t// out\n        /* \"#utility.yul\":9400:9586   */\n    tag_100:\n        /* \"#utility.yul\":9460:9580   */\n    tag_219:\n        /* \"#utility.yul\":9477:9480   */\n      dup2\n        /* \"#utility.yul\":9470:9475   */\n      dup2\n        /* \"#utility.yul\":9467:9481   */\n      lt\n        /* \"#utility.yul\":9460:9580   */\n      iszero\n      tag_221\n      jumpi\n        /* \"#utility.yul\":9531:9570   */\n      tag_222\n        /* \"#utility.yul\":9568:9569   */\n      0x00\n        /* \"#utility.yul\":9561:9566   */\n      dup3\n        /* \"#utility.yul\":9531:9570   */\n      tag_99\n      jump\t// in\n    tag_222:\n        /* \"#utility.yul\":9504:9505   */\n      0x01\n        /* \"#utility.yul\":9497:9502   */\n      dup2\n        /* \"#utility.yul\":9493:9506   */\n      add\n        /* \"#utility.yul\":9484:9506   */\n      swap1\n      pop\n        /* \"#utility.yul\":9460:9580   */\n      jump(tag_219)\n    tag_221:\n        /* \"#utility.yul\":9400:9586   */\n      pop\n      pop\n      jump\t// out\n        /* \"#utility.yul\":9592:10135   */\n    tag_101:\n        /* \"#utility.yul\":9693:9695   */\n      0x1f\n        /* \"#utility.yul\":9688:9691   */\n      dup3\n        /* \"#utility.yul\":9685:9696   */\n      gt\n        /* \"#utility.yul\":9682:10128   */\n      iszero\n      tag_224\n      jumpi\n        /* \"#utility.yul\":9727:9765   */\n      tag_225\n        /* \"#utility.yul\":9759:9764   */\n      dup2\n        /* \"#utility.yul\":9727:9765   */\n      tag_90\n      jump\t// in\n    tag_225:\n        /* \"#utility.yul\":9811:9840   */\n      tag_226\n        /* \"#utility.yul\":9829:9839   */\n      dup5\n        /* \"#utility.yul\":9811:9840   */\n      tag_91\n      jump\t// in\n    tag_226:\n        /* \"#utility.yul\":9801:9809   */\n      dup2\n        /* \"#utility.yul\":9797:9841   */\n      add\n        /* \"#utility.yul\":9994:9996   */\n      0x20\n        /* \"#utility.yul\":9982:9992   */\n      dup6\n        /* \"#utility.yul\":9979:9997   */\n      lt\n        /* \"#utility.yul\":9976:10025   */\n      iszero\n      tag_227\n      jumpi\n        /* \"#utility.yul\":10015:10023   */\n      dup2\n        /* \"#utility.yul\":10000:10023   */\n      swap1\n      pop\n        /* \"#utility.yul\":9976:10025   */\n    tag_227:\n        /* \"#utility.yul\":10038:10118   */\n      tag_228\n        /* \"#utility.yul\":10094:10116   */\n      tag_229\n        /* \"#utility.yul\":10112:10115   */\n      dup6\n        /* \"#utility.yul\":10094:10116   */\n      tag_91\n      jump\t// in\n    tag_229:\n        /* \"#utility.yul\":10084:10092   */\n      dup4\n        /* \"#utility.yul\":10080:10117   */\n      add\n        /* \"#utility.yul\":10067:10078   */\n      dup3\n        /* \"#utility.yul\":10038:10118   */\n      tag_100\n      jump\t// in\n    tag_228:\n        /* \"#utility.yul\":9697:10128   */\n      pop\n      pop\n        /* \"#utility.yul\":9682:10128   */\n    tag_224:\n        /* \"#utility.yul\":9592:10135   */\n      pop\n      pop\n      pop\n      jump\t// out\n        /* \"#utility.yul\":10141:10258   */\n    tag_102:\n        /* \"#utility.yul\":10195:10203   */\n      0x00\n        /* \"#utility.yul\":10245:10250   */\n      dup3\n        /* \"#utility.yul\":10239:10243   */\n      dup3\n        /* \"#utility.yul\":10235:10251   */\n      shr\n        /* \"#utility.yul\":10214:10251   */\n      swap1\n      pop\n        /* \"#utility.yul\":10141:10258   */\n      swap3\n      swap2\n      pop\n      pop\n      jump\t// out\n        /* \"#utility.yul\":10264:10433   */\n    tag_103:\n        /* \"#utility.yul\":10308:10314   */\n      0x00\n        /* \"#utility.yul\":10341:10392   */\n      tag_232\n        /* \"#utility.yul\":10389:10390   */\n      0x00\n        /* \"#utility.yul\":10385:10391   */\n      not\n        /* \"#utility.yul\":10377:10382   */\n      dup5\n        /* \"#utility.yul\":10374:10375   */\n      0x08\n        /* \"#utility.yul\":10370:10383   */\n      mul\n        /* \"#utility.yul\":10341:10392   */\n      tag_102\n      jump\t// in\n    tag_232:\n        /* \"#utility.yul\":10337:10393   */\n      not\n        /* \"#utility.yul\":10422:10426   */\n      dup1\n        /* \"#utility.yul\":10416:10420   */\n      dup4\n        /* \"#utility.yul\":10412:10427   */\n      and\n        /* \"#utility.yul\":10402:10427   */\n      swap2\n      pop\n        /* \"#utility.yul\":10315:10433   */\n      pop\n        /* \"#utility.yul\":10264:10433   */\n      swap3\n      swap2\n      pop\n      pop\n      jump\t// out\n        /* \"#utility.yul\":10438:10733   */\n    tag_104:\n        /* \"#utility.yul\":10514:10518   */\n      0x00\n        /* \"#utility.yul\":10660:10689   */\n      tag_234\n        /* \"#utility.yul\":10685:10688   */\n      dup4\n        /* \"#utility.yul\":10679:10683   */\n      dup4\n        /* \"#utility.yul\":10660:10689   */\n      tag_103\n      jump\t// in\n    tag_234:\n        /* \"#utility.yul\":10652:10689   */\n      swap2\n      pop\n        /* \"#utility.yul\":10722:10725   */\n      dup3\n        /* \"#utility.yul\":10719:10720   */\n      0x02\n        /* \"#utility.yul\":10715:10726   */\n      mul\n        /* \"#utility.yul\":10709:10713   */\n      dup3\n        /* \"#utility.yul\":10706:10727   */\n      or\n        /* \"#utility.yul\":10698:10727   */\n      swap1\n      pop\n        /* \"#utility.yul\":10438:10733   */\n      swap3\n      swap2\n      pop\n      pop\n      jump\t// out\n        /* \"#utility.yul\":10738:12133   */\n    tag_57:\n        /* \"#utility.yul\":10855:10892   */\n      tag_236\n        /* \"#utility.yul\":10888:10891   */\n      dup3\n        /* \"#utility.yul\":10855:10892   */\n      tag_62\n      jump\t// in\n    tag_236:\n        /* \"#utility.yul\":10957:10975   */\n      0xffffffffffffffff\n        /* \"#utility.yul\":10949:10955   */\n      dup2\n        /* \"#utility.yul\":10946:10976   */\n      gt\n        /* \"#utility.yul\":10943:10999   */\n      iszero\n      tag_237\n      jumpi\n        /* \"#utility.yul\":10979:10997   */\n      tag_238\n      tag_79\n      jump\t// in\n    tag_238:\n        /* \"#utility.yul\":10943:10999   */\n    tag_237:\n        /* \"#utility.yul\":11023:11061   */\n      tag_239\n        /* \"#utility.yul\":11055:11059   */\n      dup3\n        /* \"#utility.yul\":11049:11060   */\n      sload\n        /* \"#utility.yul\":11023:11061   */\n      tag_47\n      jump\t// in\n    tag_239:\n        /* \"#utility.yul\":11108:11175   */\n      tag_240\n        /* \"#utility.yul\":11168:11174   */\n      dup3\n        /* \"#utility.yul\":11160:11166   */\n      dup3\n        /* \"#utility.yul\":11154:11158   */\n      dup6\n        /* \"#utility.yul\":11108:11175   */\n      tag_101\n      jump\t// in\n    tag_240:\n        /* \"#utility.yul\":11202:11203   */\n      0x00\n        /* \"#utility.yul\":11226:11230   */\n      0x20\n        /* \"#utility.yul\":11213:11230   */\n      swap1\n      pop\n        /* \"#utility.yul\":11258:11260   */\n      0x1f\n        /* \"#utility.yul\":11250:11256   */\n      dup4\n        /* \"#utility.yul\":11247:11261   */\n      gt\n        /* \"#utility.yul\":11275:11276   */\n      0x01\n        /* \"#utility.yul\":11270:11888   */\n      dup2\n      eq\n      tag_242\n      jumpi\n        /* \"#utility.yul\":11932:11933   */\n      0x00\n        /* \"#utility.yul\":11949:11955   */\n      dup5\n        /* \"#utility.yul\":11946:12023   */\n      iszero\n      tag_243\n      jumpi\n        /* \"#utility.yul\":11998:12007   */\n      dup3\n        /* \"#utility.yul\":11993:11996   */\n      dup8\n        /* \"#utility.yul\":11989:12008   */\n      add\n        /* \"#utility.yul\":11983:12009   */\n      mload\n        /* \"#utility.yul\":11974:12009   */\n      swap1\n      pop\n        /* \"#utility.yul\":11946:12023   */\n    tag_243:\n        /* \"#utility.yul\":12049:12116   */\n      tag_244\n        /* \"#utility.yul\":12109:12115   */\n      dup6\n        /* \"#utility.yul\":12102:12107   */\n      dup3\n        /* \"#utility.yul\":12049:12116   */\n      tag_104\n      jump\t// in\n    tag_244:\n        /* \"#utility.yul\":12043:12047   */\n      dup7\n        /* \"#utility.yul\":12036:12117   */\n      sstore\n        /* \"#utility.yul\":11905:12127   */\n      pop\n        /* \"#utility.yul\":11240:12127   */\n      jump(tag_241)\n        /* \"#utility.yul\":11270:11888   */\n    tag_242:\n        /* \"#utility.yul\":11322:11326   */\n      0x1f\n        /* \"#utility.yul\":11318:11327   */\n      not\n        /* \"#utility.yul\":11310:11316   */\n      dup5\n        /* \"#utility.yul\":11306:11328   */\n      and\n        /* \"#utility.yul\":11356:11393   */\n      tag_245\n        /* \"#utility.yul\":11388:11392   */\n      dup7\n        /* \"#utility.yul\":11356:11393   */\n      tag_90\n      jump\t// in\n    tag_245:\n        /* \"#utility.yul\":11415:11416   */\n      0x00\n        /* \"#utility.yul\":11429:11637   */\n    tag_246:\n        /* \"#utility.yul\":11443:11450   */\n      dup3\n        /* \"#utility.yul\":11440:11441   */\n      dup2\n        /* \"#utility.yul\":11437:11451   */\n      lt\n        /* \"#utility.yul\":11429:11637   */\n      iszero\n      tag_248\n      jumpi\n        /* \"#utility.yul\":11522:11531   */\n      dup5\n        /* \"#utility.yul\":11517:11520   */\n      dup10\n        /* \"#utility.yul\":11513:11532   */\n      add\n        /* \"#utility.yul\":11507:11533   */\n      mload\n        /* \"#utility.yul\":11499:11505   */\n      dup3\n        /* \"#utility.yul\":11492:11534   */\n      sstore\n        /* \"#utility.yul\":11573:11574   */\n      0x01\n        /* \"#utility.yul\":11565:11571   */\n      dup3\n        /* \"#utility.yul\":11561:11575   */\n      add\n        /* \"#utility.yul\":11551:11575   */\n      swap2\n      pop\n        /* \"#utility.yul\":11620:11622   */\n      0x20\n        /* \"#utility.yul\":11609:11618   */\n      dup6\n        /* \"#utility.yul\":11605:11623   */\n      add\n        /* \"#utility.yul\":11592:11623   */\n      swap5\n      pop\n        /* \"#utility.yul\":11466:11470   */\n      0x20\n        /* \"#utility.yul\":11463:11464   */\n      dup2\n        /* \"#utility.yul\":11459:11471   */\n      add\n        /* \"#utility.yul\":11454:11471   */\n      swap1\n      pop\n        /* \"#utility.yul\":11429:11637   */\n      jump(tag_246)\n    tag_248:\n        /* \"#utility.yul\":11665:11671   */\n      dup7\n        /* \"#utility.yul\":11656:11663   */\n      dup4\n        /* \"#utility.yul\":11653:11672   */\n      lt\n        /* \"#utility.yul\":11650:11829   */\n      iszero\n      tag_249\n      jumpi\n        /* \"#utility.yul\":11723:11732   */\n      dup5\n        /* \"#utility.yul\":11718:11721   */\n      dup10\n        /* \"#utility.yul\":11714:11733   */\n      add\n        /* \"#utility.yul\":11708:11734   */\n      mload\n        /* \"#utility.yul\":11766:11814   */\n      tag_250\n        /* \"#utility.yul\":11808:11812   */\n      0x1f\n        /* \"#utility.yul\":11800:11806   */\n      dup10\n        /* \"#utility.yul\":11796:11813   */\n      and\n        /* \"#utility.yul\":11785:11794   */\n      dup3\n        /* \"#utility.yul\":11766:11814   */\n      tag_103\n      jump\t// in\n    tag_250:\n        /* \"#utility.yul\":11758:11764   */\n      dup4\n        /* \"#utility.yul\":11751:11815   */\n      sstore\n        /* \"#utility.yul\":11673:11829   */\n      pop\n        /* \"#utility.yul\":11650:11829   */\n    tag_249:\n        /* \"#utility.yul\":11875:11876   */\n      0x01\n        /* \"#utility.yul\":11871:11872   */\n      0x02\n        /* \"#utility.yul\":11863:11869   */\n      dup9\n        /* \"#utility.yul\":11859:11873   */\n      mul\n        /* \"#utility.yul\":11855:11877   */\n      add\n        /* \"#utility.yul\":11849:11853   */\n      dup9\n        /* \"#utility.yul\":11842:11878   */\n      sstore\n        /* \"#utility.yul\":11277:11888   */\n      pop\n      pop\n      pop\n        /* \"#utility.yul\":11240:12127   */\n    tag_241:\n      pop\n        /* \"#utility.yul\":10830:12133   */\n      pop\n      pop\n      pop\n        /* \"#utility.yul\":10738:12133   */\n      pop\n      pop\n      jump\t// out\n\n    auxdata: 0xa2646970667358221220bad4c2651126ab08cf182592338cc1549599dd3dc215b6be0462ace7d33b779164736f6c63430008190033\n}\n",
				"bytecode": {
					"linkReferences": {},
					"object": "6080604052348015600e575f80fd5b506109118061001c5f395ff3fe608060405234801561000f575f80fd5b5060043610610086575f3560e01c80636c648b68116100595780636c648b6814610100578063c47f00271461011c578063cd16ecbf14610138578063fcf74f161461015457610086565b806312a7b9141461008a57806317d7de7c146100a85780631e26fd33146100c657806367e0badb146100e2575b5f80fd5b610092610172565b60405161009f9190610284565b60405180910390f35b6100b0610187565b6040516100bd919061030d565b60405180910390f35b6100e060048036038101906100db9190610368565b610217565b005b6100ea610233565b6040516100f791906103ab565b60405180910390f35b61011a600480360381019061011591906103f7565b61023b565b005b6101366004803603810190610131919061054e565b610245565b005b610152600480360381019061014d91906105bf565b610258565b005b61015c610261565b60405161016991906105f9565b60405180910390f35b5f60025f9054906101000a900460ff16905090565b6060600180546101969061063f565b80601f01602080910402602001604051908101604052809291908181526020018280546101c29061063f565b801561020d5780601f106101e45761010080835404028352916020019161020d565b820191905f5260205f20905b8154815290600101906020018083116101f057829003601f168201915b5050505050905090565b8060025f6101000a81548160ff02191690831515021790555050565b5f8054905090565b8060038190555050565b8060019081610254919061080c565b5050565b805f8190555050565b5f600354905090565b5f8115159050919050565b61027e8161026a565b82525050565b5f6020820190506102975f830184610275565b92915050565b5f81519050919050565b5f82825260208201905092915050565b8281835e5f83830152505050565b5f601f19601f8301169050919050565b5f6102df8261029d565b6102e981856102a7565b93506102f98185602086016102b7565b610302816102c5565b840191505092915050565b5f6020820190508181035f83015261032581846102d5565b905092915050565b5f604051905090565b5f80fd5b5f80fd5b6103478161026a565b8114610351575f80fd5b50565b5f813590506103628161033e565b92915050565b5f6020828403121561037d5761037c610336565b5b5f61038a84828501610354565b91505092915050565b5f819050919050565b6103a581610393565b82525050565b5f6020820190506103be5f83018461039c565b92915050565b5f819050919050565b6103d6816103c4565b81146103e0575f80fd5b50565b5f813590506103f1816103cd565b92915050565b5f6020828403121561040c5761040b610336565b5b5f610419848285016103e3565b91505092915050565b5f80fd5b5f80fd5b7f4e487b71000000000000000000000000000000000000000000000000000000005f52604160045260245ffd5b610460826102c5565b810181811067ffffffffffffffff8211171561047f5761047e61042a565b5b80604052505050565b5f61049161032d565b905061049d8282610457565b919050565b5f67ffffffffffffffff8211156104bc576104bb61042a565b5b6104c5826102c5565b9050602081019050919050565b828183375f83830152505050565b5f6104f26104ed846104a2565b610488565b90508281526020810184848401111561050e5761050d610426565b5b6105198482856104d2565b509392505050565b5f82601f83011261053557610534610422565b5b81356105458482602086016104e0565b91505092915050565b5f6020828403121561056357610562610336565b5b5f82013567ffffffffffffffff8111156105805761057f61033a565b5b61058c84828501610521565b91505092915050565b61059e81610393565b81146105a8575f80fd5b50565b5f813590506105b981610595565b92915050565b5f602082840312156105d4576105d3610336565b5b5f6105e1848285016105ab565b91505092915050565b6105f3816103c4565b82525050565b5f60208201905061060c5f8301846105ea565b92915050565b7f4e487b71000000000000000000000000000000000000000000000000000000005f52602260045260245ffd5b5f600282049050600182168061065657607f821691505b60208210810361066957610668610612565b5b50919050565b5f819050815f5260205f209050919050565b5f6020601f8301049050919050565b5f82821b905092915050565b5f600883026106cb7fffffffffffffffffffffffffffffffffffffffffffffffffffffffffffffffff82610690565b6106d58683610690565b95508019841693508086168417925050509392505050565b5f819050919050565b5f61071061070b61070684610393565b6106ed565b610393565b9050919050565b5f819050919050565b610729836106f6565b61073d61073582610717565b84845461069c565b825550505050565b5f90565b610751610745565b61075c818484610720565b505050565b5b8181101561077f576107745f82610749565b600181019050610762565b5050565b601f8211156107c4576107958161066f565b61079e84610681565b810160208510156107ad578190505b6107c16107b985610681565b830182610761565b50505b505050565b5f82821c905092915050565b5f6107e45f19846008026107c9565b1980831691505092915050565b5f6107fc83836107d5565b9150826002028217905092915050565b6108158261029d565b67ffffffffffffffff81111561082e5761082d61042a565b5b610838825461063f565b610843828285610783565b5f60209050601f831160018114610874575f8415610862578287015190505b61086c85826107f1565b8655506108d3565b601f1984166108828661066f565b5f5b828110156108a957848901518255600182019150602085019450602081019050610884565b868310156108c657848901516108c2601f8916826107d5565b8355505b6001600288020188555050505b50505050505056fea2646970667358221220bad4c2651126ab08cf182592338cc1549599dd3dc215b6be0462ace7d33b779164736f6c63430008190033",
					"opcodes": "PUSH1 0x80 PUSH1 0x40 MSTORE CALLVALUE DUP1 ISZERO PUSH1 0xE JUMPI PUSH0 DUP1 REVERT JUMPDEST POP PUSH2 0x911 DUP1 PUSH2 0x1C PUSH0 CODECOPY PUSH0 RETURN INVALID PUSH1 0x80 PUSH1 0x40 MSTORE CALLVALUE DUP1 ISZERO PUSH2 0xF JUMPI PUSH0 DUP1 REVERT JUMPDEST POP PUSH1 0x4 CALLDATASIZE LT PUSH2 0x86 JUMPI PUSH0 CALLDATALOAD PUSH1 0xE0 SHR DUP1 PUSH4 0x6C648B68 GT PUSH2 0x59 JUMPI DUP1 PUSH4 0x6C648B68 EQ PUSH2 0x100 JUMPI DUP1 PUSH4 0xC47F0027 EQ PUSH2 0x11C JUMPI DUP1 PUSH4 0xCD16ECBF EQ PUSH2 0x138 JUMPI DUP1 PUSH4 0xFCF74F16 EQ PUSH2 0x154 JUMPI PUSH2 0x86 JUMP JUMPDEST DUP1 PUSH4 0x12A7B914 EQ PUSH2 0x8A JUMPI DUP1 PUSH4 0x17D7DE7C EQ PUSH2 0xA8 JUMPI DUP1 PUSH4 0x1E26FD33 EQ PUSH2 0xC6 JUMPI DUP1 PUSH4 0x67E0BADB EQ PUSH2 0xE2 JUMPI JUMPDEST PUSH0 DUP1 REVERT JUMPDEST PUSH2 0x92 PUSH2 0x172 JUMP JUMPDEST PUSH1 0x40 MLOAD PUSH2 0x9F SWAP2 SWAP1 PUSH2 0x284 JUMP JUMPDEST PUSH1 0x40 MLOAD DUP1 SWAP2 SUB SWAP1 RETURN JUMPDEST PUSH2 0xB0 PUSH2 0x187 JUMP JUMPDEST PUSH1 0x40 MLOAD PUSH2 0xBD SWAP2 SWAP1 PUSH2 0x30D JUMP JUMPDEST PUSH1 0x40 MLOAD DUP1 SWAP2 SUB SWAP1 RETURN JUMPDEST PUSH2 0xE0 PUSH1 0x4 DUP1 CALLDATASIZE SUB DUP2 ADD SWAP1 PUSH2 0xDB SWAP2 SWAP1 PUSH2 0x368 JUMP JUMPDEST PUSH2 0x217 JUMP JUMPDEST STOP JUMPDEST PUSH2 0xEA PUSH2 0x233 JUMP JUMPDEST PUSH1 0x40 MLOAD PUSH2 0xF7 SWAP2 SWAP1 PUSH2 0x3AB JUMP JUMPDEST PUSH1 0x40 MLOAD DUP1 SWAP2 SUB SWAP1 RETURN JUMPDEST PUSH2 0x11A PUSH1 0x4 DUP1 CALLDATASIZE SUB DUP2 ADD SWAP1 PUSH2 0x115 SWAP2 SWAP1 PUSH2 0x3F7 JUMP JUMPDEST PUSH2 0x23B JUMP JUMPDEST STOP JUMPDEST PUSH2 0x136 PUSH1 0x4 DUP1 CALLDATASIZE SUB DUP2 ADD SWAP1 PUSH2 0x131 SWAP2 SWAP1 PUSH2 0x54E JUMP JUMPDEST PUSH2 0x245 JUMP JUMPDEST STOP JUMPDEST PUSH2 0x152 PUSH1 0x4 DUP1 CALLDATASIZE SUB DUP2 ADD SWAP1 PUSH2 0x14D SWAP2 SWAP1 PUSH2 0x5BF JUMP JUMPDEST PUSH2 0x258 JUMP JUMPDEST STOP JUMPDEST PUSH2 0x15C PUSH2 0x261 JUMP JUMPDEST PUSH1 0x40 MLOAD PUSH2 0x169 SWAP2 SWAP1 PUSH2 0x5F9 JUMP JUMPDEST PUSH1 0x40 MLOAD DUP1 SWAP2 SUB SWAP1 RETURN JUMPDEST PUSH0 PUSH1 0x2 PUSH0 SWAP1 SLOAD SWAP1 PUSH2 0x100 EXP SWAP1 DIV PUSH1 0xFF AND SWAP1 POP SWAP1 JUMP JUMPDEST PUSH1 0x60 PUSH1 0x1 DUP1 SLOAD PUSH2 0x196 SWAP1 PUSH2 0x63F JUMP JUMPDEST DUP1 PUSH1 0x1F ADD PUSH1 0x20 DUP1 SWAP2 DIV MUL PUSH1 0x20 ADD PUSH1 0x40 MLOAD SWAP1 DUP2 ADD PUSH1 0x40 MSTORE DUP1 SWAP3 SWAP2 SWAP1 DUP2 DUP2 MSTORE PUSH1 0x20 ADD DUP3 DUP1 SLOAD PUSH2 0x1C2 SWAP1 PUSH2 0x63F JUMP JUMPDEST DUP1 ISZERO PUSH2 0x20D JUMPI DUP1 PUSH1 0x1F LT PUSH2 0x1E4 JUMPI PUSH2 0x100 DUP1 DUP4 SLOAD DIV MUL DUP4 MSTORE SWAP2 PUSH1 0x20 ADD SWAP2 PUSH2 0x20D JUMP JUMPDEST DUP3 ADD SWAP2 SWAP1 PUSH0 MSTORE PUSH1 0x20 PUSH0 KECCAK256 SWAP1 JUMPDEST DUP2 SLOAD DUP2 MSTORE SWAP1 PUSH1 0x1 ADD SWAP1 PUSH1 0x20 ADD DUP1 DUP4 GT PUSH2 0x1F0 JUMPI DUP3 SWAP1 SUB PUSH1 0x1F AND DUP3 ADD SWAP2 JUMPDEST POP POP POP POP POP SWAP1 POP SWAP1 JUMP JUMPDEST DUP1 PUSH1 0x2 PUSH0 PUSH2 0x100 EXP DUP2 SLOAD DUP2 PUSH1 0xFF MUL NOT AND SWAP1 DUP4 ISZERO ISZERO MUL OR SWAP1 SSTORE POP POP JUMP JUMPDEST PUSH0 DUP1 SLOAD SWAP1 POP SWAP1 JUMP JUMPDEST DUP1 PUSH1 0x3 DUP2 SWAP1 SSTORE POP POP JUMP JUMPDEST DUP1 PUSH1 0x1 SWAP1 DUP2 PUSH2 0x254 SWAP2 SWAP1 PUSH2 0x80C JUMP JUMPDEST POP POP JUMP JUMPDEST DUP1 PUSH0 DUP2 SWAP1 SSTORE POP POP JUMP JUMPDEST PUSH0 PUSH1 0x3 SLOAD SWAP1 POP SWAP1 JUMP JUMPDEST PUSH0 DUP2 ISZERO ISZERO SWAP1 POP SWAP2 SWAP1 POP JUMP JUMPDEST PUSH2 0x27E DUP2 PUSH2 0x26A JUMP JUMPDEST DUP3 MSTORE POP POP JUMP JUMPDEST PUSH0 PUSH1 0x20 DUP3 ADD SWAP1 POP PUSH2 0x297 PUSH0 DUP4 ADD DUP5 PUSH2 0x275 JUMP JUMPDEST SWAP3 SWAP2 POP POP JUMP JUMPDEST PUSH0 DUP2 MLOAD SWAP1 POP SWAP2 SWAP1 POP JUMP JUMPDEST PUSH0 DUP3 DUP3 MSTORE PUSH1 0x20 DUP3 ADD SWAP1 POP SWAP3 SWAP2 POP POP JUMP JUMPDEST DUP3 DUP2 DUP4 MCOPY PUSH0 DUP4 DUP4 ADD MSTORE POP POP POP JUMP JUMPDEST PUSH0 PUSH1 0x1F NOT PUSH1 0x1F DUP4 ADD AND SWAP1 POP SWAP2 SWAP1 POP JUMP JUMPDEST PUSH0 PUSH2 0x2DF DUP3 PUSH2 0x29D JUMP JUMPDEST PUSH2 0x2E9 DUP2 DUP6 PUSH2 0x2A7 JUMP JUMPDEST SWAP4 POP PUSH2 0x2F9 DUP2 DUP6 PUSH1 0x20 DUP7 ADD PUSH2 0x2B7 JUMP JUMPDEST PUSH2 0x302 DUP2 PUSH2 0x2C5 JUMP JUMPDEST DUP5 ADD SWAP2 POP POP SWAP3 SWAP2 POP POP JUMP JUMPDEST PUSH0 PUSH1 0x20 DUP3 ADD SWAP1 POP DUP2 DUP2 SUB PUSH0 DUP4 ADD MSTORE PUSH2 0x325 DUP2 DUP5 PUSH2 0x2D5 JUMP JUMPDEST SWAP1 POP SWAP3 SWAP2 POP POP JUMP JUMPDEST PUSH0 PUSH1 0x40 MLOAD SWAP1 POP SWAP1 JUMP JUMPDEST PUSH0 DUP1 REVERT JUMPDEST PUSH0 DUP1 REVERT JUMPDEST PUSH2 0x347 DUP2 PUSH2 0x26A JUMP JUMPDEST DUP2 EQ PUSH2 0x351 JUMPI PUSH0 DUP1 REVERT JUMPDEST POP JUMP JUMPDEST PUSH0 DUP2 CALLDATALOAD SWAP1 POP PUSH2 0x362 DUP2 PUSH2 0x33E JUMP JUMPDEST SWAP3 SWAP2 POP POP JUMP JUMPDEST PUSH0 PUSH1 0x20 DUP3 DUP5 SUB SLT ISZERO PUSH2 0x37D JUMPI PUSH2 0x37C PUSH2 0x336 JUMP JUMPDEST JUMPDEST PUSH0 PUSH2 0x38A DUP5 DUP3 DUP6 ADD PUSH2 0x354 JUMP JUMPDEST SWAP2 POP POP SWAP3 SWAP2 POP POP JUMP JUMPDEST PUSH0 DUP2 SWAP1 POP SWAP2 SWAP1 POP JUMP JUMPDEST PUSH2 0x3A5 DUP2 PUSH2 0x393 JUMP JUMPDEST DUP3 MSTORE POP POP JUMP JUMPDEST PUSH0 PUSH1 0x20 DUP3 ADD SWAP1 POP PUSH2 0x3BE PUSH0 DUP4 ADD DUP5 PUSH2 0x39C JUMP JUMPDEST SWAP3 SWAP2 POP POP JUMP JUMPDEST PUSH0 DUP2 SWAP1 POP SWAP2 SWAP1 POP JUMP JUMPDEST PUSH2 0x3D6 DUP2 PUSH2 0x3C4 JUMP JUMPDEST DUP2 EQ PUSH2 0x3E0 JUMPI PUSH0 DUP1 REVERT JUMPDEST POP JUMP JUMPDEST PUSH0 DUP2 CALLDATALOAD SWAP1 POP PUSH2 0x3F1 DUP2 PUSH2 0x3CD JUMP JUMPDEST SWAP3 SWAP2 POP POP JUMP JUMPDEST PUSH0 PUSH1 0x20 DUP3 DUP5 SUB SLT ISZERO PUSH2 0x40C JUMPI PUSH2 0x40B PUSH2 0x336 JUMP JUMPDEST JUMPDEST PUSH0 PUSH2 0x419 DUP5 DUP3 DUP6 ADD PUSH2 0x3E3 JUMP JUMPDEST SWAP2 POP POP SWAP3 SWAP2 POP POP JUMP JUMPDEST PUSH0 DUP1 REVERT JUMPDEST PUSH0 DUP1 REVERT JUMPDEST PUSH32 0x4E487B7100000000000000000000000000000000000000000000000000000000 PUSH0 MSTORE PUSH1 0x41 PUSH1 0x4 MSTORE PUSH1 0x24 PUSH0 REVERT JUMPDEST PUSH2 0x460 DUP3 PUSH2 0x2C5 JUMP JUMPDEST DUP2 ADD DUP2 DUP2 LT PUSH8 0xFFFFFFFFFFFFFFFF DUP3 GT OR ISZERO PUSH2 0x47F JUMPI PUSH2 0x47E PUSH2 0x42A JUMP JUMPDEST JUMPDEST DUP1 PUSH1 0x40 MSTORE POP POP POP JUMP JUMPDEST PUSH0 PUSH2 0x491 PUSH2 0x32D JUMP JUMPDEST SWAP1 POP PUSH2 0x49D DUP3 DUP3 PUSH2 0x457 JUMP JUMPDEST SWAP2 SWAP1 POP JUMP JUMPDEST PUSH0 PUSH8 0xFFFFFFFFFFFFFFFF DUP3 GT ISZERO PUSH2 0x4BC JUMPI PUSH2 0x4BB PUSH2 0x42A JUMP JUMPDEST JUMPDEST PUSH2 0x4C5 DUP3 PUSH2 0x2C5 JUMP JUMPDEST SWAP1 POP PUSH1 0x20 DUP2 ADD SWAP1 POP SWAP2 SWAP1 POP JUMP JUMPDEST DUP3 DUP2 DUP4 CALLDATACOPY PUSH0 DUP4 DUP4 ADD MSTORE POP POP POP JUMP JUMPDEST PUSH0 PUSH2 0x4F2 PUSH2 0x4ED DUP5 PUSH2 0x4A2 JUMP JUMPDEST PUSH2 0x488 JUMP JUMPDEST SWAP1 POP DUP3 DUP2 MSTORE PUSH1 0x20 DUP2 ADD DUP5 DUP5 DUP5 ADD GT ISZERO PUSH2 0x50E JUMPI PUSH2 0x50D PUSH2 0x426 JUMP JUMPDEST JUMPDEST PUSH2 0x519 DUP5 DUP3 DUP6 PUSH2 0x4D2 JUMP JUMPDEST POP SWAP4 SWAP3 POP POP POP JUMP JUMPDEST PUSH0 DUP3 PUSH1 0x1F DUP4 ADD SLT PUSH2 0x535 JUMPI PUSH2 0x534 PUSH2 0x422 JUMP JUMPDEST JUMPDEST DUP2 CALLDATALOAD PUSH2 0x545 DUP5 DUP3 PUSH1 0x20 DUP7 ADD PUSH2 0x4E0 JUMP JUMPDEST SWAP2 POP POP SWAP3 SWAP2 POP POP JUMP JUMPDEST PUSH0 PUSH1 0x20 DUP3 DUP5 SUB SLT ISZERO PUSH2 0x563 JUMPI PUSH2 0x562 PUSH2 0x336 JUMP JUMPDEST JUMPDEST PUSH0 DUP3 ADD CALLDATALOAD PUSH8 0xFFFFFFFFFFFFFFFF DUP2 GT ISZERO PUSH2 0x580 JUMPI PUSH2 0x57F PUSH2 0x33A JUMP JUMPDEST JUMPDEST PUSH2 0x58C DUP5 DUP3 DUP6 ADD PUSH2 0x521 JUMP JUMPDEST SWAP2 POP POP SWAP3 SWAP2 POP POP JUMP JUMPDEST PUSH2 0x59E DUP2 PUSH2 0x393 JUMP JUMPDEST DUP2 EQ PUSH2 0x5A8 JUMPI PUSH0 DUP1 REVERT JUMPDEST POP JUMP JUMPDEST PUSH0 DUP2 CALLDATALOAD SWAP1 POP PUSH2 0x5B9 DUP2 PUSH2 0x595 JUMP JUMPDEST SWAP3 SWAP2 POP POP JUMP JUMPDEST PUSH0 PUSH1 0x20 DUP3 DUP5 SUB SLT ISZERO PUSH2 0x5D4 JUMPI PUSH2 0x5D3 PUSH2 0x336 JUMP JUMPDEST JUMPDEST PUSH0 PUSH2 0x5E1 DUP5 DUP3 DUP6 ADD PUSH2 0x5AB JUMP JUMPDEST SWAP2 POP POP SWAP3 SWAP2 POP POP JUMP JUMPDEST PUSH2 0x5F3 DUP2 PUSH2 0x3C4 JUMP JUMPDEST DUP3 MSTORE POP POP JUMP JUMPDEST PUSH0 PUSH1 0x20 DUP3 ADD SWAP1 POP PUSH2 0x60C PUSH0 DUP4 ADD DUP5 PUSH2 0x5EA JUMP JUMPDEST SWAP3 SWAP2 POP POP JUMP JUMPDEST PUSH32 0x4E487B7100000000000000000000000000000000000000000000000000000000 PUSH0 MSTORE PUSH1 0x22 PUSH1 0x4 MSTORE PUSH1 0x24 PUSH0 REVERT JUMPDEST PUSH0 PUSH1 0x2 DUP3 DIV SWAP1 POP PUSH1 0x1 DUP3 AND DUP1 PUSH2 0x656 JUMPI PUSH1 0x7F DUP3 AND SWAP2 POP JUMPDEST PUSH1 0x20 DUP3 LT DUP2 SUB PUSH2 0x669 JUMPI PUSH2 0x668 PUSH2 0x612 JUMP JUMPDEST JUMPDEST POP SWAP2 SWAP1 POP JUMP JUMPDEST PUSH0 DUP2 SWAP1 POP DUP2 PUSH0 MSTORE PUSH1 0x20 PUSH0 KECCAK256 SWAP1 POP SWAP2 SWAP1 POP JUMP JUMPDEST PUSH0 PUSH1 0x20 PUSH1 0x1F DUP4 ADD DIV SWAP1 POP SWAP2 SWAP1 POP JUMP JUMPDEST PUSH0 DUP3 DUP3 SHL SWAP1 POP SWAP3 SWAP2 POP POP JUMP JUMPDEST PUSH0 PUSH1 0x8 DUP4 MUL PUSH2 0x6CB PUSH32 0xFFFFFFFFFFFFFFFFFFFFFFFFFFFFFFFFFFFFFFFFFFFFFFFFFFFFFFFFFFFFFFFF DUP3 PUSH2 0x690 JUMP JUMPDEST PUSH2 0x6D5 DUP7 DUP4 PUSH2 0x690 JUMP JUMPDEST SWAP6 POP DUP1 NOT DUP5 AND SWAP4 POP DUP1 DUP7 AND DUP5 OR SWAP3 POP POP POP SWAP4 SWAP3 POP POP POP JUMP JUMPDEST PUSH0 DUP2 SWAP1 POP SWAP2 SWAP1 POP JUMP JUMPDEST PUSH0 PUSH2 0x710 PUSH2 0x70B PUSH2 0x706 DUP5 PUSH2 0x393 JUMP JUMPDEST PUSH2 0x6ED JUMP JUMPDEST PUSH2 0x393 JUMP JUMPDEST SWAP1 POP SWAP2 SWAP1 POP JUMP JUMPDEST PUSH0 DUP2 SWAP1 POP SWAP2 SWAP1 POP JUMP JUMPDEST PUSH2 0x729 DUP4 PUSH2 0x6F6 JUMP JUMPDEST PUSH2 0x73D PUSH2 0x735 DUP3 PUSH2 0x717 JUMP JUMPDEST DUP5 DUP5 SLOAD PUSH2 0x69C JUMP JUMPDEST DUP3 SSTORE POP POP POP POP JUMP JUMPDEST PUSH0 SWAP1 JUMP JUMPDEST PUSH2 0x751 PUSH2 0x745 JUMP JUMPDEST PUSH2 0x75C DUP2 DUP5 DUP5 PUSH2 0x720 JUMP JUMPDEST POP POP POP JUMP JUMPDEST JUMPDEST DUP2 DUP2 LT ISZERO PUSH2 0x77F JUMPI PUSH2 0x774 PUSH0 DUP3 PUSH2 0x749 JUMP JUMPDEST PUSH1 0x1 DUP2 ADD SWAP1 POP PUSH2 0x762 JUMP JUMPDEST POP POP JUMP JUMPDEST PUSH1 0x1F DUP3 GT ISZERO PUSH2 0x7C4 JUMPI PUSH2 0x795 DUP2 PUSH2 0x66F JUMP JUMPDEST PUSH2 0x79E DUP5 PUSH2 0x681 JUMP JUMPDEST DUP2 ADD PUSH1 0x20 DUP6 LT ISZERO PUSH2 0x7AD JUMPI DUP2 SWAP1 POP JUMPDEST PUSH2 0x7C1 PUSH2 0x7B9 DUP6 PUSH2 0x681 JUMP JUMPDEST DUP4 ADD DUP3 PUSH2 0x761 JUMP JUMPDEST POP POP JUMPDEST POP POP POP JUMP JUMPDEST PUSH0 DUP3 DUP3 SHR SWAP1 POP SWAP3 SWAP2 POP POP JUMP JUMPDEST PUSH0 PUSH2 0x7E4 PUSH0 NOT DUP5 PUSH1 0x8 MUL PUSH2 0x7C9 JUMP JUMPDEST NOT DUP1 DUP4 AND SWAP2 POP POP SWAP3 SWAP2 POP POP JUMP JUMPDEST PUSH0 PUSH2 0x7FC DUP4 DUP4 PUSH2 0x7D5 JUMP JUMPDEST SWAP2 POP DUP3 PUSH1 0x2 MUL DUP3 OR SWAP1 POP SWAP3 SWAP2 POP POP JUMP JUMPDEST PUSH2 0x815 DUP3 PUSH2 0x29D JUMP JUMPDEST PUSH8 0xFFFFFFFFFFFFFFFF DUP2 GT ISZERO PUSH2 0x82E JUMPI PUSH2 0x82D PUSH2 0x42A JUMP JUMPDEST JUMPDEST PUSH2 0x838 DUP3 SLOAD PUSH2 0x63F JUMP JUMPDEST PUSH2 0x843 DUP3 DUP3 DUP6 PUSH2 0x783 JUMP JUMPDEST PUSH0 PUSH1 0x20 SWAP1 POP PUSH1 0x1F DUP4 GT PUSH1 0x1 DUP2 EQ PUSH2 0x874 JUMPI PUSH0 DUP5 ISZERO PUSH2 0x862 JUMPI DUP3 DUP8 ADD MLOAD SWAP1 POP JUMPDEST PUSH2 0x86C DUP6 DUP3 PUSH2 0x7F1 JUMP JUMPDEST DUP7 SSTORE POP PUSH2 0x8D3 JUMP JUMPDEST PUSH1 0x1F NOT DUP5 AND PUSH2 0x882 DUP7 PUSH2 0x66F JUMP JUMPDEST PUSH0 JUMPDEST DUP3 DUP2 LT ISZERO PUSH2 0x8A9 JUMPI DUP5 DUP10 ADD MLOAD DUP3 SSTORE PUSH1 0x1 DUP3 ADD SWAP2 POP PUSH1 0x20 DUP6 ADD SWAP5 POP PUSH1 0x20 DUP2 ADD SWAP1 POP PUSH2 0x884 JUMP JUMPDEST DUP7 DUP4 LT ISZERO PUSH2 0x8C6 JUMPI DUP5 DUP10 ADD MLOAD PUSH2 0x8C2 PUSH1 0x1F DUP10 AND DUP3 PUSH2 0x7D5 JUMP JUMPDEST DUP4 SSTORE POP JUMPDEST PUSH1 0x1 PUSH1 0x2 DUP9 MUL ADD DUP9 SSTORE POP POP POP JUMPDEST POP POP POP POP POP POP JUMP INVALID LOG2 PUSH5 0x6970667358 0x22 SLT KECCAK256 0xBA 0xD4 0xC2 PUSH6 0x1126AB08CF18 0x25 SWAP3 CALLER DUP13 0xC1 SLOAD SWAP6 SWAP10 0xDD RETURNDATASIZE 0xC2 ISZERO 0xB6 0xBE DIV PUSH3 0xACE7D3 EXTCODESIZE PUSH24 0x9164736F6C63430008190033000000000000000000000000 "
				},
				"gasEstimates": {
					"creation": {
						"codeDepositCost": "464200",
						"executionCost": "497",
						"totalCost": "464697"
					},
					"external": {
						"getBool()": "2474",
						"getName()": "infinite",
						"getNegNum()": "2498",
						"getNum()": "2499",
						"setBool(bool)": "24718",
						"setName(string)": "infinite",
						"setNegNum(int256)": "22515",
						"setNum(uint256)": "22558"
					}
				},
				"methodIdentifiers": {
					"getBool()": "12a7b914",
					"getName()": "17d7de7c",
					"getNegNum()": "fcf74f16",
					"getNum()": "67e0badb",
					"setBool(bool)": "1e26fd33",
					"setName(string)": "c47f0027",
					"setNegNum(int256)": "6c648b68",
					"setNum(uint256)": "cd16ecbf"
				}
			},
			"storageLayout": {
				"storage": [
					{
						"astId": 3,
						"contract": "1_Challenge.sol:Challenge_1",
						"label": "num",
						"offset": 0,
						"slot": "0",
						"type": "t_uint256"
					},
					{
						"astId": 5,
						"contract": "1_Challenge.sol:Challenge_1",
						"label": "name",
						"offset": 0,
						"slot": "1",
						"type": "t_string_storage"
					},
					{
						"astId": 7,
						"contract": "1_Challenge.sol:Challenge_1",
						"label": "fall",
						"offset": 0,
						"slot": "2",
						"type": "t_bool"
					},
					{
						"astId": 9,
						"contract": "1_Challenge.sol:Challenge_1",
						"label": "negNum",
						"offset": 0,
						"slot": "3",
						"type": "t_int256"
					}
				],
				"types": {
					"t_bool": {
						"encoding": "inplace",
						"label": "bool",
						"numberOfBytes": "1"
					},
					"t_int256": {
						"encoding": "inplace",
						"label": "int256",
						"numberOfBytes": "32"
					},
					"t_string_storage": {
						"encoding": "bytes",
						"label": "string",
						"numberOfBytes": "32"
					},
					"t_uint256": {
						"encoding": "inplace",
						"label": "uint256",
						"numberOfBytes": "32"
					}
				}
			},
			"userdoc": {
				"kind": "user",
				"methods": {},
				"version": 1
			}
		}
	}
}