{
	"contracts/Array.sol": {
		"Array": {
			"abi": [
				{
					"inputs": [],
					"name": "examples",
					"outputs": [
						{
							"internalType": "uint256",
							"name": "",
							"type": "uint256"
						},
						{
							"internalType": "uint256",
							"name": "",
							"type": "uint256"
						}
					],
					"stateMutability": "nonpayable",
					"type": "function"
				},
				{
					"inputs": [
						{
							"internalType": "uint256",
							"name": "",
							"type": "uint256"
						}
					],
					"name": "nums",
					"outputs": [
						{
							"internalType": "uint256",
							"name": "",
							"type": "uint256"
						}
					],
					"stateMutability": "view",
					"type": "function"
				},
				{
					"inputs": [
						{
							"internalType": "uint256",
							"name": "",
							"type": "uint256"
						}
					],
					"name": "numsFixed",
					"outputs": [
						{
							"internalType": "uint256",
							"name": "",
							"type": "uint256"
						}
					],
					"stateMutability": "view",
					"type": "function"
				}
			],
			"devdoc": {
				"kind": "dev",
				"methods": {},
				"version": 1
			},
			"evm": {
				"assembly": "    /* \"contracts/Array.sol\":57:584  contract Array {... */\n  mstore(0x40, 0x80)\n    /* \"contracts/Array.sol\":78:110  uint[] public nums = [1,2,3,4,5] */\n  mload(0x40)\n  dup1\n  0xa0\n  add\n  0x40\n  mstore\n  dup1\n    /* \"contracts/Array.sol\":100:101  1 */\n  0x01\n    /* \"contracts/Array.sol\":78:110  uint[] public nums = [1,2,3,4,5] */\n  0xff\n  and\n  dup2\n  mstore\n  0x20\n  add\n    /* \"contracts/Array.sol\":102:103  2 */\n  0x02\n    /* \"contracts/Array.sol\":78:110  uint[] public nums = [1,2,3,4,5] */\n  0xff\n  and\n  dup2\n  mstore\n  0x20\n  add\n    /* \"contracts/Array.sol\":104:105  3 */\n  0x03\n    /* \"contracts/Array.sol\":78:110  uint[] public nums = [1,2,3,4,5] */\n  0xff\n  and\n  dup2\n  mstore\n  0x20\n  add\n    /* \"contracts/Array.sol\":106:107  4 */\n  0x04\n    /* \"contracts/Array.sol\":78:110  uint[] public nums = [1,2,3,4,5] */\n  0xff\n  and\n  dup2\n  mstore\n  0x20\n  add\n    /* \"contracts/Array.sol\":108:109  5 */\n  0x05\n    /* \"contracts/Array.sol\":78:110  uint[] public nums = [1,2,3,4,5] */\n  0xff\n  and\n  dup2\n  mstore\n  pop\n  0x00\n  swap1\n  0x05\n  tag_1\n  swap3\n  swap2\n  swap1\n  tag_2\n  jump\t// in\ntag_1:\n  pop\n    /* \"contracts/Array.sol\":139:174  uint[3] public  numsFixed = [1,2,3] */\n  mload(0x40)\n  dup1\n  0x60\n  add\n  0x40\n  mstore\n  dup1\n    /* \"contracts/Array.sol\":168:169  1 */\n  0x01\n    /* \"contracts/Array.sol\":139:174  uint[3] public  numsFixed = [1,2,3] */\n  0xff\n  and\n  dup2\n  mstore\n  0x20\n  add\n    /* \"contracts/Array.sol\":170:171  2 */\n  0x02\n    /* \"contracts/Array.sol\":139:174  uint[3] public  numsFixed = [1,2,3] */\n  0xff\n  and\n  dup2\n  mstore\n  0x20\n  add\n    /* \"contracts/Array.sol\":172:173  3 */\n  0x03\n    /* \"contracts/Array.sol\":139:174  uint[3] public  numsFixed = [1,2,3] */\n  0xff\n  and\n  dup2\n  mstore\n  pop\n  0x01\n  swap1\n  0x03\n  tag_3\n  swap3\n  swap2\n  swap1\n  tag_4\n  jump\t// in\ntag_3:\n  pop\n    /* \"contracts/Array.sol\":57:584  contract Array {... */\n  callvalue\n  dup1\n  iszero\n  tag_5\n  jumpi\n  0x00\n  dup1\n  revert\ntag_5:\n  pop\n  jump(tag_6)\ntag_2:\n  dup3\n  dup1\n  sload\n  dup3\n  dup3\n  sstore\n  swap1\n  0x00\n  mstore\n  keccak256(0x00, 0x20)\n  swap1\n  dup2\n  add\n  swap3\n  dup3\n  iszero\n  tag_7\n  jumpi\n  swap2\n  0x20\n  mul\n  dup3\n  add\ntag_8:\n  dup3\n  dup2\n  gt\n  iszero\n  tag_9\n  jumpi\n  dup3\n  mload\n  dup3\n  swap1\n  0xff\n  and\n  swap1\n  sstore\n  swap2\n  0x20\n  add\n  swap2\n  swap1\n  0x01\n  add\n  swap1\n  jump(tag_8)\ntag_9:\ntag_7:\n  pop\n  swap1\n  pop\n  tag_10\n  swap2\n  swap1\n  tag_11\n  jump\t// in\ntag_10:\n  pop\n  swap1\n  jump\t// out\ntag_4:\n  dup3\n  0x03\n  dup2\n  add\n  swap3\n  dup3\n  iszero\n  tag_12\n  jumpi\n  swap2\n  0x20\n  mul\n  dup3\n  add\ntag_13:\n  dup3\n  dup2\n  gt\n  iszero\n  tag_14\n  jumpi\n  dup3\n  mload\n  dup3\n  swap1\n  0xff\n  and\n  swap1\n  sstore\n  swap2\n  0x20\n  add\n  swap2\n  swap1\n  0x01\n  add\n  swap1\n  jump(tag_13)\ntag_14:\ntag_12:\n  pop\n  swap1\n  pop\n  tag_15\n  swap2\n  swap1\n  tag_11\n  jump\t// in\ntag_15:\n  pop\n  swap1\n  jump\t// out\ntag_11:\ntag_16:\n  dup1\n  dup3\n  gt\n  iszero\n  tag_17\n  jumpi\n  0x00\n  dup2\n  0x00\n  swap1\n  sstore\n  pop\n  0x01\n  add\n  jump(tag_16)\ntag_17:\n  pop\n  swap1\n  jump\t// out\ntag_6:\n  dataSize(sub_0)\n  dup1\n  dataOffset(sub_0)\n  0x00\n  codecopy\n  0x00\n  return\nstop\n\nsub_0: assembly {\n        /* \"contracts/Array.sol\":57:584  contract Array {... */\n      mstore(0x40, 0x80)\n      callvalue\n      dup1\n      iszero\n      tag_1\n      jumpi\n      0x00\n      dup1\n      revert\n    tag_1:\n      pop\n      jumpi(tag_2, lt(calldatasize, 0x04))\n      shr(0xe0, calldataload(0x00))\n      dup1\n      0x335d00c2\n      eq\n      tag_3\n      jumpi\n      dup1\n      0x44395769\n      eq\n      tag_4\n      jumpi\n      dup1\n      0xfd1ee54c\n      eq\n      tag_5\n      jumpi\n    tag_2:\n      0x00\n      dup1\n      revert\n        /* \"contracts/Array.sol\":182:581  function examples() external returns (uint, uint) {... */\n    tag_3:\n      tag_6\n      tag_7\n      jump\t// in\n    tag_6:\n      mload(0x40)\n      tag_8\n      swap3\n      swap2\n      swap1\n      tag_9\n      jump\t// in\n    tag_8:\n      mload(0x40)\n      dup1\n      swap2\n      sub\n      swap1\n      return\n        /* \"contracts/Array.sol\":139:174  uint[3] public  numsFixed = [1,2,3] */\n    tag_4:\n      tag_10\n      0x04\n      dup1\n      calldatasize\n      sub\n      dup2\n      add\n      swap1\n      tag_11\n      swap2\n      swap1\n      tag_12\n      jump\t// in\n    tag_11:\n      tag_13\n      jump\t// in\n    tag_10:\n      mload(0x40)\n      tag_14\n      swap2\n      swap1\n      tag_15\n      jump\t// in\n    tag_14:\n      mload(0x40)\n      dup1\n      swap2\n      sub\n      swap1\n      return\n        /* \"contracts/Array.sol\":78:110  uint[] public nums = [1,2,3,4,5] */\n    tag_5:\n      tag_16\n      0x04\n      dup1\n      calldatasize\n      sub\n      dup2\n      add\n      swap1\n      tag_17\n      swap2\n      swap1\n      tag_12\n      jump\t// in\n    tag_17:\n      tag_18\n      jump\t// in\n    tag_16:\n      mload(0x40)\n      tag_19\n      swap2\n      swap1\n      tag_15\n      jump\t// in\n    tag_19:\n      mload(0x40)\n      dup1\n      swap2\n      sub\n      swap1\n      return\n        /* \"contracts/Array.sol\":182:581  function examples() external returns (uint, uint) {... */\n    tag_7:\n        /* \"contracts/Array.sol\":220:224  uint */\n      0x00\n        /* \"contracts/Array.sol\":226:230  uint */\n      dup1\n        /* \"contracts/Array.sol\":242:246  nums */\n      0x00\n        /* \"contracts/Array.sol\":252:253  4 */\n      0x04\n        /* \"contracts/Array.sol\":242:254  nums.push(4) */\n      swap1\n      dup1\n      0x01\n      dup2\n      sload\n      add\n      dup1\n      dup3\n      sstore\n      dup1\n      swap2\n      pop\n      pop\n      0x01\n      swap1\n      sub\n      swap1\n      0x00\n      mstore\n      keccak256(0x00, 0x20)\n      add\n      0x00\n      swap1\n      swap2\n      swap1\n      swap2\n      swap1\n      swap2\n      pop\n      sstore\n        /* \"contracts/Array.sol\":280:286  uint x */\n      0x00\n        /* \"contracts/Array.sol\":289:293  nums */\n      dup1\n        /* \"contracts/Array.sol\":294:295  1 */\n      0x01\n        /* \"contracts/Array.sol\":289:296  nums[1] */\n      dup2\n      sload\n      dup2\n      lt\n      tag_22\n      jumpi\n      tag_23\n      tag_24\n      jump\t// in\n    tag_23:\n    tag_22:\n      swap1\n      0x00\n      mstore\n      keccak256(0x00, 0x20)\n      add\n      sload\n        /* \"contracts/Array.sol\":280:296  uint x = nums[1] */\n      swap1\n      pop\n        /* \"contracts/Array.sol\":325:328  777 */\n      0x0309\n        /* \"contracts/Array.sol\":315:319  nums */\n      0x00\n        /* \"contracts/Array.sol\":320:321  2 */\n      0x02\n        /* \"contracts/Array.sol\":315:322  nums[2] */\n      dup2\n      sload\n      dup2\n      lt\n      tag_26\n      jumpi\n      tag_27\n      tag_24\n      jump\t// in\n    tag_27:\n    tag_26:\n      swap1\n      0x00\n      mstore\n      keccak256(0x00, 0x20)\n      add\n        /* \"contracts/Array.sol\":315:328  nums[2] = 777 */\n      dup2\n      swap1\n      sstore\n      pop\n        /* \"contracts/Array.sol\":363:367  nums */\n      0x00\n        /* \"contracts/Array.sol\":368:369  1 */\n      0x01\n        /* \"contracts/Array.sol\":363:370  nums[1] */\n      dup2\n      sload\n      dup2\n      lt\n      tag_29\n      jumpi\n      tag_30\n      tag_24\n      jump\t// in\n    tag_30:\n    tag_29:\n      swap1\n      0x00\n      mstore\n      keccak256(0x00, 0x20)\n      add\n        /* \"contracts/Array.sol\":356:370  delete nums[1] */\n      0x00\n      swap1\n      sstore\n        /* \"contracts/Array.sol\":398:402  nums */\n      0x00\n        /* \"contracts/Array.sol\":398:408  nums.pop() */\n      dup1\n      sload\n      dup1\n      tag_32\n      jumpi\n      tag_33\n      tag_34\n      jump\t// in\n    tag_33:\n    tag_32:\n      0x01\n      swap1\n      sub\n      dup2\n      dup2\n      swap1\n      0x00\n      mstore\n      keccak256(0x00, 0x20)\n      add\n      0x00\n      swap1\n      sstore\n      swap1\n      sstore\n        /* \"contracts/Array.sol\":433:441  uint len */\n      0x00\n        /* \"contracts/Array.sol\":444:448  nums */\n      dup1\n        /* \"contracts/Array.sol\":444:455  nums.length */\n      dup1\n      sload\n      swap1\n      pop\n        /* \"contracts/Array.sol\":433:455  uint len = nums.length */\n      swap1\n      pop\n        /* \"contracts/Array.sol\":498:513  uint[] memory a */\n      0x00\n        /* \"contracts/Array.sol\":527:528  5 */\n      0x05\n        /* \"contracts/Array.sol\":516:529  new uint[](5) */\n      0xffffffffffffffff\n      dup2\n      gt\n      iszero\n      tag_36\n      jumpi\n      tag_37\n      tag_38\n      jump\t// in\n    tag_37:\n    tag_36:\n      mload(0x40)\n      swap1\n      dup1\n      dup3\n      mstore\n      dup1\n      0x20\n      mul\n      0x20\n      add\n      dup3\n      add\n      0x40\n      mstore\n      dup1\n      iszero\n      tag_39\n      jumpi\n      dup2\n      0x20\n      add\n      0x20\n      dup3\n      mul\n      dup1\n      calldatasize\n      dup4\n      calldatacopy\n      dup1\n      dup3\n      add\n      swap2\n      pop\n      pop\n      swap1\n      pop\n    tag_39:\n      pop\n        /* \"contracts/Array.sol\":498:529  uint[] memory a = new uint[](5) */\n      swap1\n      pop\n        /* \"contracts/Array.sol\":546:549  123 */\n      0x7b\n        /* \"contracts/Array.sol\":539:540  a */\n      dup2\n        /* \"contracts/Array.sol\":541:542  1 */\n      0x01\n        /* \"contracts/Array.sol\":539:543  a[1] */\n      dup2\n      mload\n      dup2\n      lt\n      tag_40\n      jumpi\n      tag_41\n      tag_24\n      jump\t// in\n    tag_41:\n    tag_40:\n      0x20\n      mul\n      0x20\n      add\n      add\n        /* \"contracts/Array.sol\":539:549  a[1] = 123 */\n      dup2\n      dup2\n      mstore\n      pop\n      pop\n        /* \"contracts/Array.sol\":567:568  x */\n      dup3\n        /* \"contracts/Array.sol\":570:573  len */\n      dup3\n        /* \"contracts/Array.sol\":559:574  return (x, len) */\n      swap5\n      pop\n      swap5\n      pop\n      pop\n      pop\n      pop\n        /* \"contracts/Array.sol\":182:581  function examples() external returns (uint, uint) {... */\n      swap1\n      swap2\n      jump\t// out\n        /* \"contracts/Array.sol\":139:174  uint[3] public  numsFixed = [1,2,3] */\n    tag_13:\n      0x01\n      dup2\n      0x03\n      dup2\n      lt\n      tag_42\n      jumpi\n      0x00\n      dup1\n      revert\n    tag_42:\n      add\n      0x00\n      swap2\n      pop\n      swap1\n      pop\n      sload\n      dup2\n      jump\t// out\n        /* \"contracts/Array.sol\":78:110  uint[] public nums = [1,2,3,4,5] */\n    tag_18:\n      0x00\n      dup2\n      dup2\n      sload\n      dup2\n      lt\n      tag_44\n      jumpi\n      0x00\n      dup1\n      revert\n    tag_44:\n      swap1\n      0x00\n      mstore\n      keccak256(0x00, 0x20)\n      add\n      0x00\n      swap2\n      pop\n      swap1\n      pop\n      sload\n      dup2\n      jump\t// out\n        /* \"#utility.yul\":7:84   */\n    tag_46:\n        /* \"#utility.yul\":44:51   */\n      0x00\n        /* \"#utility.yul\":73:78   */\n      dup2\n        /* \"#utility.yul\":62:78   */\n      swap1\n      pop\n        /* \"#utility.yul\":7:84   */\n      swap2\n      swap1\n      pop\n      jump\t// out\n        /* \"#utility.yul\":90:208   */\n    tag_47:\n        /* \"#utility.yul\":177:201   */\n      tag_56\n        /* \"#utility.yul\":195:200   */\n      dup2\n        /* \"#utility.yul\":177:201   */\n      tag_46\n      jump\t// in\n    tag_56:\n        /* \"#utility.yul\":172:175   */\n      dup3\n        /* \"#utility.yul\":165:202   */\n      mstore\n        /* \"#utility.yul\":90:208   */\n      pop\n      pop\n      jump\t// out\n        /* \"#utility.yul\":214:546   */\n    tag_9:\n        /* \"#utility.yul\":335:339   */\n      0x00\n        /* \"#utility.yul\":373:375   */\n      0x40\n        /* \"#utility.yul\":362:371   */\n      dup3\n        /* \"#utility.yul\":358:376   */\n      add\n        /* \"#utility.yul\":350:376   */\n      swap1\n      pop\n        /* \"#utility.yul\":386:457   */\n      tag_58\n        /* \"#utility.yul\":454:455   */\n      0x00\n        /* \"#utility.yul\":443:452   */\n      dup4\n        /* \"#utility.yul\":439:456   */\n      add\n        /* \"#utility.yul\":430:436   */\n      dup6\n        /* \"#utility.yul\":386:457   */\n      tag_47\n      jump\t// in\n    tag_58:\n        /* \"#utility.yul\":467:539   */\n      tag_59\n        /* \"#utility.yul\":535:537   */\n      0x20\n        /* \"#utility.yul\":524:533   */\n      dup4\n        /* \"#utility.yul\":520:538   */\n      add\n        /* \"#utility.yul\":511:517   */\n      dup5\n        /* \"#utility.yul\":467:539   */\n      tag_47\n      jump\t// in\n    tag_59:\n        /* \"#utility.yul\":214:546   */\n      swap4\n      swap3\n      pop\n      pop\n      pop\n      jump\t// out\n        /* \"#utility.yul\":633:750   */\n    tag_49:\n        /* \"#utility.yul\":742:743   */\n      0x00\n        /* \"#utility.yul\":739:740   */\n      dup1\n        /* \"#utility.yul\":732:744   */\n      revert\n        /* \"#utility.yul\":879:1001   */\n    tag_51:\n        /* \"#utility.yul\":952:976   */\n      tag_64\n        /* \"#utility.yul\":970:975   */\n      dup2\n        /* \"#utility.yul\":952:976   */\n      tag_46\n      jump\t// in\n    tag_64:\n        /* \"#utility.yul\":945:950   */\n      dup2\n        /* \"#utility.yul\":942:977   */\n      eq\n        /* \"#utility.yul\":932:995   */\n      tag_65\n      jumpi\n        /* \"#utility.yul\":991:992   */\n      0x00\n        /* \"#utility.yul\":988:989   */\n      dup1\n        /* \"#utility.yul\":981:993   */\n      revert\n        /* \"#utility.yul\":932:995   */\n    tag_65:\n        /* \"#utility.yul\":879:1001   */\n      pop\n      jump\t// out\n        /* \"#utility.yul\":1007:1146   */\n    tag_52:\n        /* \"#utility.yul\":1053:1058   */\n      0x00\n        /* \"#utility.yul\":1091:1097   */\n      dup2\n        /* \"#utility.yul\":1078:1098   */\n      calldataload\n        /* \"#utility.yul\":1069:1098   */\n      swap1\n      pop\n        /* \"#utility.yul\":1107:1140   */\n      tag_67\n        /* \"#utility.yul\":1134:1139   */\n      dup2\n        /* \"#utility.yul\":1107:1140   */\n      tag_51\n      jump\t// in\n    tag_67:\n        /* \"#utility.yul\":1007:1146   */\n      swap3\n      swap2\n      pop\n      pop\n      jump\t// out\n        /* \"#utility.yul\":1152:1481   */\n    tag_12:\n        /* \"#utility.yul\":1211:1217   */\n      0x00\n        /* \"#utility.yul\":1260:1262   */\n      0x20\n        /* \"#utility.yul\":1248:1257   */\n      dup3\n        /* \"#utility.yul\":1239:1246   */\n      dup5\n        /* \"#utility.yul\":1235:1258   */\n      sub\n        /* \"#utility.yul\":1231:1263   */\n      slt\n        /* \"#utility.yul\":1228:1347   */\n      iszero\n      tag_69\n      jumpi\n        /* \"#utility.yul\":1266:1345   */\n      tag_70\n      tag_49\n      jump\t// in\n    tag_70:\n        /* \"#utility.yul\":1228:1347   */\n    tag_69:\n        /* \"#utility.yul\":1386:1387   */\n      0x00\n        /* \"#utility.yul\":1411:1464   */\n      tag_71\n        /* \"#utility.yul\":1456:1463   */\n      dup5\n        /* \"#utility.yul\":1447:1453   */\n      dup3\n        /* \"#utility.yul\":1436:1445   */\n      dup6\n        /* \"#utility.yul\":1432:1454   */\n      add\n        /* \"#utility.yul\":1411:1464   */\n      tag_52\n      jump\t// in\n    tag_71:\n        /* \"#utility.yul\":1401:1464   */\n      swap2\n      pop\n        /* \"#utility.yul\":1357:1474   */\n      pop\n        /* \"#utility.yul\":1152:1481   */\n      swap3\n      swap2\n      pop\n      pop\n      jump\t// out\n        /* \"#utility.yul\":1487:1709   */\n    tag_15:\n        /* \"#utility.yul\":1580:1584   */\n      0x00\n        /* \"#utility.yul\":1618:1620   */\n      0x20\n        /* \"#utility.yul\":1607:1616   */\n      dup3\n        /* \"#utility.yul\":1603:1621   */\n      add\n        /* \"#utility.yul\":1595:1621   */\n      swap1\n      pop\n        /* \"#utility.yul\":1631:1702   */\n      tag_73\n        /* \"#utility.yul\":1699:1700   */\n      0x00\n        /* \"#utility.yul\":1688:1697   */\n      dup4\n        /* \"#utility.yul\":1684:1701   */\n      add\n        /* \"#utility.yul\":1675:1681   */\n      dup5\n        /* \"#utility.yul\":1631:1702   */\n      tag_47\n      jump\t// in\n    tag_73:\n        /* \"#utility.yul\":1487:1709   */\n      swap3\n      swap2\n      pop\n      pop\n      jump\t// out\n        /* \"#utility.yul\":1715:1895   */\n    tag_24:\n        /* \"#utility.yul\":1763:1840   */\n      0x4e487b7100000000000000000000000000000000000000000000000000000000\n        /* \"#utility.yul\":1760:1761   */\n      0x00\n        /* \"#utility.yul\":1753:1841   */\n      mstore\n        /* \"#utility.yul\":1860:1864   */\n      0x32\n        /* \"#utility.yul\":1857:1858   */\n      0x04\n        /* \"#utility.yul\":1850:1865   */\n      mstore\n        /* \"#utility.yul\":1884:1888   */\n      0x24\n        /* \"#utility.yul\":1881:1882   */\n      0x00\n        /* \"#utility.yul\":1874:1889   */\n      revert\n        /* \"#utility.yul\":1901:2081   */\n    tag_34:\n        /* \"#utility.yul\":1949:2026   */\n      0x4e487b7100000000000000000000000000000000000000000000000000000000\n        /* \"#utility.yul\":1946:1947   */\n      0x00\n        /* \"#utility.yul\":1939:2027   */\n      mstore\n        /* \"#utility.yul\":2046:2050   */\n      0x31\n        /* \"#utility.yul\":2043:2044   */\n      0x04\n        /* \"#utility.yul\":2036:2051   */\n      mstore\n        /* \"#utility.yul\":2070:2074   */\n      0x24\n        /* \"#utility.yul\":2067:2068   */\n      0x00\n        /* \"#utility.yul\":2060:2075   */\n      revert\n        /* \"#utility.yul\":2087:2267   */\n    tag_38:\n        /* \"#utility.yul\":2135:2212   */\n      0x4e487b7100000000000000000000000000000000000000000000000000000000\n        /* \"#utility.yul\":2132:2133   */\n      0x00\n        /* \"#utility.yul\":2125:2213   */\n      mstore\n        /* \"#utility.yul\":2232:2236   */\n      0x41\n        /* \"#utility.yul\":2229:2230   */\n      0x04\n        /* \"#utility.yul\":2222:2237   */\n      mstore\n        /* \"#utility.yul\":2256:2260   */\n      0x24\n        /* \"#utility.yul\":2253:2254   */\n      0x00\n        /* \"#utility.yul\":2246:2261   */\n      revert\n\n    auxdata: 0xa26469706673582212202efbb5a2459b7839cefa565cb051a6d810ce057748460d6d0a30165d9366291b64736f6c63430008190033\n}\n",
				"bytecode": {
					"linkReferences": {},
					"object": "60806040526040518060a00160405280600160ff168152602001600260ff168152602001600360ff168152602001600460ff168152602001600560ff168152505f90600561004e929190610098565b506040518060600160405280600160ff168152602001600260ff168152602001600360ff1681525060019060036100869291906100e8565b50348015610092575f80fd5b50610148565b828054828255905f5260205f209081019282156100d7579160200282015b828111156100d6578251829060ff169055916020019190600101906100b6565b5b5090506100e4919061012d565b5090565b826003810192821561011c579160200282015b8281111561011b578251829060ff169055916020019190600101906100fb565b5b509050610129919061012d565b5090565b5b80821115610144575f815f90555060010161012e565b5090565b61039a806101555f395ff3fe608060405234801561000f575f80fd5b506004361061003f575f3560e01c8063335d00c2146100435780634439576914610062578063fd1ee54c14610092575b5f80fd5b61004b6100c2565b604051610059929190610244565b60405180910390f35b61007c60048036038101906100779190610299565b6101f4565b60405161008991906102c4565b60405180910390f35b6100ac60048036038101906100a79190610299565b61020d565b6040516100b991906102c4565b60405180910390f35b5f805f6004908060018154018082558091505060019003905f5260205f20015f90919091909150555f806001815481106100ff576100fe6102dd565b5b905f5260205f20015490506103095f600281548110610121576101206102dd565b5b905f5260205f2001819055505f600181548110610141576101406102dd565b5b905f5260205f20015f90555f80548061015d5761015c61030a565b5b600190038181905f5260205f20015f905590555f808054905090505f600567ffffffffffffffff81111561019457610193610337565b5b6040519080825280602002602001820160405280156101c25781602001602082028036833780820191505090505b509050607b816001815181106101db576101da6102dd565b5b6020026020010181815250508282945094505050509091565b60018160038110610203575f80fd5b015f915090505481565b5f818154811061021b575f80fd5b905f5260205f20015f915090505481565b5f819050919050565b61023e8161022c565b82525050565b5f6040820190506102575f830185610235565b6102646020830184610235565b9392505050565b5f80fd5b6102788161022c565b8114610282575f80fd5b50565b5f813590506102938161026f565b92915050565b5f602082840312156102ae576102ad61026b565b5b5f6102bb84828501610285565b91505092915050565b5f6020820190506102d75f830184610235565b92915050565b7f4e487b71000000000000000000000000000000000000000000000000000000005f52603260045260245ffd5b7f4e487b71000000000000000000000000000000000000000000000000000000005f52603160045260245ffd5b7f4e487b71000000000000000000000000000000000000000000000000000000005f52604160045260245ffdfea26469706673582212202efbb5a2459b7839cefa565cb051a6d810ce057748460d6d0a30165d9366291b64736f6c63430008190033",
					"opcodes": "PUSH1 0x80 PUSH1 0x40 MSTORE PUSH1 0x40 MLOAD DUP1 PUSH1 0xA0 ADD PUSH1 0x40 MSTORE DUP1 PUSH1 0x1 PUSH1 0xFF AND DUP2 MSTORE PUSH1 0x20 ADD PUSH1 0x2 PUSH1 0xFF AND DUP2 MSTORE PUSH1 0x20 ADD PUSH1 0x3 PUSH1 0xFF AND DUP2 MSTORE PUSH1 0x20 ADD PUSH1 0x4 PUSH1 0xFF AND DUP2 MSTORE PUSH1 0x20 ADD PUSH1 0x5 PUSH1 0xFF AND DUP2 MSTORE POP PUSH0 SWAP1 PUSH1 0x5 PUSH2 0x4E SWAP3 SWAP2 SWAP1 PUSH2 0x98 JUMP JUMPDEST POP PUSH1 0x40 MLOAD DUP1 PUSH1 0x60 ADD PUSH1 0x40 MSTORE DUP1 PUSH1 0x1 PUSH1 0xFF AND DUP2 MSTORE PUSH1 0x20 ADD PUSH1 0x2 PUSH1 0xFF AND DUP2 MSTORE PUSH1 0x20 ADD PUSH1 0x3 PUSH1 0xFF AND DUP2 MSTORE POP PUSH1 0x1 SWAP1 PUSH1 0x3 PUSH2 0x86 SWAP3 SWAP2 SWAP1 PUSH2 0xE8 JUMP JUMPDEST POP CALLVALUE DUP1 ISZERO PUSH2 0x92 JUMPI PUSH0 DUP1 REVERT JUMPDEST POP PUSH2 0x148 JUMP JUMPDEST DUP3 DUP1 SLOAD DUP3 DUP3 SSTORE SWAP1 PUSH0 MSTORE PUSH1 0x20 PUSH0 KECCAK256 SWAP1 DUP2 ADD SWAP3 DUP3 ISZERO PUSH2 0xD7 JUMPI SWAP2 PUSH1 0x20 MUL DUP3 ADD JUMPDEST DUP3 DUP2 GT ISZERO PUSH2 0xD6 JUMPI DUP3 MLOAD DUP3 SWAP1 PUSH1 0xFF AND SWAP1 SSTORE SWAP2 PUSH1 0x20 ADD SWAP2 SWAP1 PUSH1 0x1 ADD SWAP1 PUSH2 0xB6 JUMP JUMPDEST JUMPDEST POP SWAP1 POP PUSH2 0xE4 SWAP2 SWAP1 PUSH2 0x12D JUMP JUMPDEST POP SWAP1 JUMP JUMPDEST DUP3 PUSH1 0x3 DUP2 ADD SWAP3 DUP3 ISZERO PUSH2 0x11C JUMPI SWAP2 PUSH1 0x20 MUL DUP3 ADD JUMPDEST DUP3 DUP2 GT ISZERO PUSH2 0x11B JUMPI DUP3 MLOAD DUP3 SWAP1 PUSH1 0xFF AND SWAP1 SSTORE SWAP2 PUSH1 0x20 ADD SWAP2 SWAP1 PUSH1 0x1 ADD SWAP1 PUSH2 0xFB JUMP JUMPDEST JUMPDEST POP SWAP1 POP PUSH2 0x129 SWAP2 SWAP1 PUSH2 0x12D JUMP JUMPDEST POP SWAP1 JUMP JUMPDEST JUMPDEST DUP1 DUP3 GT ISZERO PUSH2 0x144 JUMPI PUSH0 DUP2 PUSH0 SWAP1 SSTORE POP PUSH1 0x1 ADD PUSH2 0x12E JUMP JUMPDEST POP SWAP1 JUMP JUMPDEST PUSH2 0x39A DUP1 PUSH2 0x155 PUSH0 CODECOPY PUSH0 RETURN INVALID PUSH1 0x80 PUSH1 0x40 MSTORE CALLVALUE DUP1 ISZERO PUSH2 0xF JUMPI PUSH0 DUP1 REVERT JUMPDEST POP PUSH1 0x4 CALLDATASIZE LT PUSH2 0x3F JUMPI PUSH0 CALLDATALOAD PUSH1 0xE0 SHR DUP1 PUSH4 0x335D00C2 EQ PUSH2 0x43 JUMPI DUP1 PUSH4 0x44395769 EQ PUSH2 0x62 JUMPI DUP1 PUSH4 0xFD1EE54C EQ PUSH2 0x92 JUMPI JUMPDEST PUSH0 DUP1 REVERT JUMPDEST PUSH2 0x4B PUSH2 0xC2 JUMP JUMPDEST PUSH1 0x40 MLOAD PUSH2 0x59 SWAP3 SWAP2 SWAP1 PUSH2 0x244 JUMP JUMPDEST PUSH1 0x40 MLOAD DUP1 SWAP2 SUB SWAP1 RETURN JUMPDEST PUSH2 0x7C PUSH1 0x4 DUP1 CALLDATASIZE SUB DUP2 ADD SWAP1 PUSH2 0x77 SWAP2 SWAP1 PUSH2 0x299 JUMP JUMPDEST PUSH2 0x1F4 JUMP JUMPDEST PUSH1 0x40 MLOAD PUSH2 0x89 SWAP2 SWAP1 PUSH2 0x2C4 JUMP JUMPDEST PUSH1 0x40 MLOAD DUP1 SWAP2 SUB SWAP1 RETURN JUMPDEST PUSH2 0xAC PUSH1 0x4 DUP1 CALLDATASIZE SUB DUP2 ADD SWAP1 PUSH2 0xA7 SWAP2 SWAP1 PUSH2 0x299 JUMP JUMPDEST PUSH2 0x20D JUMP JUMPDEST PUSH1 0x40 MLOAD PUSH2 0xB9 SWAP2 SWAP1 PUSH2 0x2C4 JUMP JUMPDEST PUSH1 0x40 MLOAD DUP1 SWAP2 SUB SWAP1 RETURN JUMPDEST PUSH0 DUP1 PUSH0 PUSH1 0x4 SWAP1 DUP1 PUSH1 0x1 DUP2 SLOAD ADD DUP1 DUP3 SSTORE DUP1 SWAP2 POP POP PUSH1 0x1 SWAP1 SUB SWAP1 PUSH0 MSTORE PUSH1 0x20 PUSH0 KECCAK256 ADD PUSH0 SWAP1 SWAP2 SWAP1 SWAP2 SWAP1 SWAP2 POP SSTORE PUSH0 DUP1 PUSH1 0x1 DUP2 SLOAD DUP2 LT PUSH2 0xFF JUMPI PUSH2 0xFE PUSH2 0x2DD JUMP JUMPDEST JUMPDEST SWAP1 PUSH0 MSTORE PUSH1 0x20 PUSH0 KECCAK256 ADD SLOAD SWAP1 POP PUSH2 0x309 PUSH0 PUSH1 0x2 DUP2 SLOAD DUP2 LT PUSH2 0x121 JUMPI PUSH2 0x120 PUSH2 0x2DD JUMP JUMPDEST JUMPDEST SWAP1 PUSH0 MSTORE PUSH1 0x20 PUSH0 KECCAK256 ADD DUP2 SWAP1 SSTORE POP PUSH0 PUSH1 0x1 DUP2 SLOAD DUP2 LT PUSH2 0x141 JUMPI PUSH2 0x140 PUSH2 0x2DD JUMP JUMPDEST JUMPDEST SWAP1 PUSH0 MSTORE PUSH1 0x20 PUSH0 KECCAK256 ADD PUSH0 SWAP1 SSTORE PUSH0 DUP1 SLOAD DUP1 PUSH2 0x15D JUMPI PUSH2 0x15C PUSH2 0x30A JUMP JUMPDEST JUMPDEST PUSH1 0x1 SWAP1 SUB DUP2 DUP2 SWAP1 PUSH0 MSTORE PUSH1 0x20 PUSH0 KECCAK256 ADD PUSH0 SWAP1 SSTORE SWAP1 SSTORE PUSH0 DUP1 DUP1 SLOAD SWAP1 POP SWAP1 POP PUSH0 PUSH1 0x5 PUSH8 0xFFFFFFFFFFFFFFFF DUP2 GT ISZERO PUSH2 0x194 JUMPI PUSH2 0x193 PUSH2 0x337 JUMP JUMPDEST JUMPDEST PUSH1 0x40 MLOAD SWAP1 DUP1 DUP3 MSTORE DUP1 PUSH1 0x20 MUL PUSH1 0x20 ADD DUP3 ADD PUSH1 0x40 MSTORE DUP1 ISZERO PUSH2 0x1C2 JUMPI DUP2 PUSH1 0x20 ADD PUSH1 0x20 DUP3 MUL DUP1 CALLDATASIZE DUP4 CALLDATACOPY DUP1 DUP3 ADD SWAP2 POP POP SWAP1 POP JUMPDEST POP SWAP1 POP PUSH1 0x7B DUP2 PUSH1 0x1 DUP2 MLOAD DUP2 LT PUSH2 0x1DB JUMPI PUSH2 0x1DA PUSH2 0x2DD JUMP JUMPDEST JUMPDEST PUSH1 0x20 MUL PUSH1 0x20 ADD ADD DUP2 DUP2 MSTORE POP POP DUP3 DUP3 SWAP5 POP SWAP5 POP POP POP POP SWAP1 SWAP2 JUMP JUMPDEST PUSH1 0x1 DUP2 PUSH1 0x3 DUP2 LT PUSH2 0x203 JUMPI PUSH0 DUP1 REVERT JUMPDEST ADD PUSH0 SWAP2 POP SWAP1 POP SLOAD DUP2 JUMP JUMPDEST PUSH0 DUP2 DUP2 SLOAD DUP2 LT PUSH2 0x21B JUMPI PUSH0 DUP1 REVERT JUMPDEST SWAP1 PUSH0 MSTORE PUSH1 0x20 PUSH0 KECCAK256 ADD PUSH0 SWAP2 POP SWAP1 POP SLOAD DUP2 JUMP JUMPDEST PUSH0 DUP2 SWAP1 POP SWAP2 SWAP1 POP JUMP JUMPDEST PUSH2 0x23E DUP2 PUSH2 0x22C JUMP JUMPDEST DUP3 MSTORE POP POP JUMP JUMPDEST PUSH0 PUSH1 0x40 DUP3 ADD SWAP1 POP PUSH2 0x257 PUSH0 DUP4 ADD DUP6 PUSH2 0x235 JUMP JUMPDEST PUSH2 0x264 PUSH1 0x20 DUP4 ADD DUP5 PUSH2 0x235 JUMP JUMPDEST SWAP4 SWAP3 POP POP POP JUMP JUMPDEST PUSH0 DUP1 REVERT JUMPDEST PUSH2 0x278 DUP2 PUSH2 0x22C JUMP JUMPDEST DUP2 EQ PUSH2 0x282 JUMPI PUSH0 DUP1 REVERT JUMPDEST POP JUMP JUMPDEST PUSH0 DUP2 CALLDATALOAD SWAP1 POP PUSH2 0x293 DUP2 PUSH2 0x26F JUMP JUMPDEST SWAP3 SWAP2 POP POP JUMP JUMPDEST PUSH0 PUSH1 0x20 DUP3 DUP5 SUB SLT ISZERO PUSH2 0x2AE JUMPI PUSH2 0x2AD PUSH2 0x26B JUMP JUMPDEST JUMPDEST PUSH0 PUSH2 0x2BB DUP5 DUP3 DUP6 ADD PUSH2 0x285 JUMP JUMPDEST SWAP2 POP POP SWAP3 SWAP2 POP POP JUMP JUMPDEST PUSH0 PUSH1 0x20 DUP3 ADD SWAP1 POP PUSH2 0x2D7 PUSH0 DUP4 ADD DUP5 PUSH2 0x235 JUMP JUMPDEST SWAP3 SWAP2 POP POP JUMP JUMPDEST PUSH32 0x4E487B7100000000000000000000000000000000000000000000000000000000 PUSH0 MSTORE PUSH1 0x32 PUSH1 0x4 MSTORE PUSH1 0x24 PUSH0 REVERT JUMPDEST PUSH32 0x4E487B7100000000000000000000000000000000000000000000000000000000 PUSH0 MSTORE PUSH1 0x31 PUSH1 0x4 MSTORE PUSH1 0x24 PUSH0 REVERT JUMPDEST PUSH32 0x4E487B7100000000000000000000000000000000000000000000000000000000 PUSH0 MSTORE PUSH1 0x41 PUSH1 0x4 MSTORE PUSH1 0x24 PUSH0 REVERT INVALID LOG2 PUSH5 0x6970667358 0x22 SLT KECCAK256 0x2E 0xFB 0xB5 LOG2 GASLIMIT SWAP12 PUSH25 0x39CEFA565CB051A6D810CE057748460D6D0A30165D9366291B PUSH5 0x736F6C6343 STOP ADDMOD NOT STOP CALLER "
				},
				"gasEstimates": {
					"creation": {
						"codeDepositCost": "184400",
						"executionCost": "infinite",
						"totalCost": "infinite"
					},
					"external": {
						"examples()": "infinite",
						"nums(uint256)": "infinite",
						"numsFixed(uint256)": "infinite"
					}
				},
				"methodIdentifiers": {
					"examples()": "335d00c2",
					"nums(uint256)": "fd1ee54c",
					"numsFixed(uint256)": "44395769"
				}
			},
			"storageLayout": {
				"storage": [
					{
						"astId": 10,
						"contract": "contracts/Array.sol:Array",
						"label": "nums",
						"offset": 0,
						"slot": "0",
						"type": "t_array(t_uint256)dyn_storage"
					},
					{
						"astId": 18,
						"contract": "contracts/Array.sol:Array",
						"label": "numsFixed",
						"offset": 0,
						"slot": "1",
						"type": "t_array(t_uint256)3_storage"
					}
				],
				"types": {
					"t_array(t_uint256)3_storage": {
						"base": "t_uint256",
						"encoding": "inplace",
						"label": "uint256[3]",
						"numberOfBytes": "96"
					},
					"t_array(t_uint256)dyn_storage": {
						"base": "t_uint256",
						"encoding": "dynamic_array",
						"label": "uint256[]",
						"numberOfBytes": "32"
					},
					"t_uint256": {
						"encoding": "inplace",
						"label": "uint256",
						"numberOfBytes": "32"
					}
				}
			},
			"userdoc": {
				"kind": "user",
				"methods": {},
				"version": 1
			}
		}
	}
}