{
	"data": {
		"bytecode": {
			"linkReferences": {},
			"object": "6080604052348015600e575f80fd5b5061025a8061001c5f395ff3fe608060405260043610610037575f3560e01c80632408521d1461007b5780633ba15036146100a5578063cb05b93e146100cf57610077565b36610077577f85177f287940f2f05425a4029951af0e047a7f9c4eaa9a6e6917bcd869f86695333460405161006d929190610187565b60405180910390a1005b5f80fd5b348015610086575f80fd5b5061008f6100f9565b60405161009c91906101ae565b60405180910390f35b3480156100b0575f80fd5b506100b961010f565b6040516100c691906101ae565b60405180910390f35b3480156100da575f80fd5b506100e3610116565b6040516100f091906101ae565b60405180910390f35b5f633b9aca004761010a91906101f4565b905090565b5f47905090565b5f670de0b6b3a76400004761012b91906101f4565b905090565b5f73ffffffffffffffffffffffffffffffffffffffff82169050919050565b5f61015982610130565b9050919050565b6101698161014f565b82525050565b5f819050919050565b6101818161016f565b82525050565b5f60408201905061019a5f830185610160565b6101a76020830184610178565b9392505050565b5f6020820190506101c15f830184610178565b92915050565b7f4e487b71000000000000000000000000000000000000000000000000000000005f52601260045260245ffd5b5f6101fe8261016f565b91506102098361016f565b925082610219576102186101c7565b5b82820490509291505056fea264697066735822122056cc011c807f7d1de862cba1910cc869a259dce7dd42c46326390c97422eeae364736f6c63430008190033",
			"opcodes": "PUSH1 0x80 PUSH1 0x40 MSTORE CALLVALUE DUP1 ISZERO PUSH1 0xE JUMPI PUSH0 DUP1 REVERT JUMPDEST POP PUSH2 0x25A DUP1 PUSH2 0x1C PUSH0 CODECOPY PUSH0 RETURN INVALID PUSH1 0x80 PUSH1 0x40 MSTORE PUSH1 0x4 CALLDATASIZE LT PUSH2 0x37 JUMPI PUSH0 CALLDATALOAD PUSH1 0xE0 SHR DUP1 PUSH4 0x2408521D EQ PUSH2 0x7B JUMPI DUP1 PUSH4 0x3BA15036 EQ PUSH2 0xA5 JUMPI DUP1 PUSH4 0xCB05B93E EQ PUSH2 0xCF JUMPI PUSH2 0x77 JUMP JUMPDEST CALLDATASIZE PUSH2 0x77 JUMPI PUSH32 0x85177F287940F2F05425A4029951AF0E047A7F9C4EAA9A6E6917BCD869F86695 CALLER CALLVALUE PUSH1 0x40 MLOAD PUSH2 0x6D SWAP3 SWAP2 SWAP1 PUSH2 0x187 JUMP JUMPDEST PUSH1 0x40 MLOAD DUP1 SWAP2 SUB SWAP1 LOG1 STOP JUMPDEST PUSH0 DUP1 REVERT JUMPDEST CALLVALUE DUP1 ISZERO PUSH2 0x86 JUMPI PUSH0 DUP1 REVERT JUMPDEST POP PUSH2 0x8F PUSH2 0xF9 JUMP JUMPDEST PUSH1 0x40 MLOAD PUSH2 0x9C SWAP2 SWAP1 PUSH2 0x1AE JUMP JUMPDEST PUSH1 0x40 MLOAD DUP1 SWAP2 SUB SWAP1 RETURN JUMPDEST CALLVALUE DUP1 ISZERO PUSH2 0xB0 JUMPI PUSH0 DUP1 REVERT JUMPDEST POP PUSH2 0xB9 PUSH2 0x10F JUMP JUMPDEST PUSH1 0x40 MLOAD PUSH2 0xC6 SWAP2 SWAP1 PUSH2 0x1AE JUMP JUMPDEST PUSH1 0x40 MLOAD DUP1 SWAP2 SUB SWAP1 RETURN JUMPDEST CALLVALUE DUP1 ISZERO PUSH2 0xDA JUMPI PUSH0 DUP1 REVERT JUMPDEST POP PUSH2 0xE3 PUSH2 0x116 JUMP JUMPDEST PUSH1 0x40 MLOAD PUSH2 0xF0 SWAP2 SWAP1 PUSH2 0x1AE JUMP JUMPDEST PUSH1 0x40 MLOAD DUP1 SWAP2 SUB SWAP1 RETURN JUMPDEST PUSH0 PUSH4 0x3B9ACA00 SELFBALANCE PUSH2 0x10A SWAP2 SWAP1 PUSH2 0x1F4 JUMP JUMPDEST SWAP1 POP SWAP1 JUMP JUMPDEST PUSH0 SELFBALANCE SWAP1 POP SWAP1 JUMP JUMPDEST PUSH0 PUSH8 0xDE0B6B3A7640000 SELFBALANCE PUSH2 0x12B SWAP2 SWAP1 PUSH2 0x1F4 JUMP JUMPDEST SWAP1 POP SWAP1 JUMP JUMPDEST PUSH0 PUSH20 0xFFFFFFFFFFFFFFFFFFFFFFFFFFFFFFFFFFFFFFFF DUP3 AND SWAP1 POP SWAP2 SWAP1 POP JUMP JUMPDEST PUSH0 PUSH2 0x159 DUP3 PUSH2 0x130 JUMP JUMPDEST SWAP1 POP SWAP2 SWAP1 POP JUMP JUMPDEST PUSH2 0x169 DUP2 PUSH2 0x14F JUMP JUMPDEST DUP3 MSTORE POP POP JUMP JUMPDEST PUSH0 DUP2 SWAP1 POP SWAP2 SWAP1 POP JUMP JUMPDEST PUSH2 0x181 DUP2 PUSH2 0x16F JUMP JUMPDEST DUP3 MSTORE POP POP JUMP JUMPDEST PUSH0 PUSH1 0x40 DUP3 ADD SWAP1 POP PUSH2 0x19A PUSH0 DUP4 ADD DUP6 PUSH2 0x160 JUMP JUMPDEST PUSH2 0x1A7 PUSH1 0x20 DUP4 ADD DUP5 PUSH2 0x178 JUMP JUMPDEST SWAP4 SWAP3 POP POP POP JUMP JUMPDEST PUSH0 PUSH1 0x20 DUP3 ADD SWAP1 POP PUSH2 0x1C1 PUSH0 DUP4 ADD DUP5 PUSH2 0x178 JUMP JUMPDEST SWAP3 SWAP2 POP POP JUMP JUMPDEST PUSH32 0x4E487B7100000000000000000000000000000000000000000000000000000000 PUSH0 MSTORE PUSH1 0x12 PUSH1 0x4 MSTORE PUSH1 0x24 PUSH0 REVERT JUMPDEST PUSH0 PUSH2 0x1FE DUP3 PUSH2 0x16F JUMP JUMPDEST SWAP2 POP PUSH2 0x209 DUP4 PUSH2 0x16F JUMP JUMPDEST SWAP3 POP DUP3 PUSH2 0x219 JUMPI PUSH2 0x218 PUSH2 0x1C7 JUMP JUMPDEST JUMPDEST DUP3 DUP3 DIV SWAP1 POP SWAP3 SWAP2 POP POP JUMP INVALID LOG2 PUSH5 0x6970667358 0x22 SLT KECCAK256 JUMP 0xCC ADD SHR DUP1 PUSH32 0x7D1DE862CBA1910CC869A259DCE7DD42C46326390C97422EEAE364736F6C6343 STOP ADDMOD NOT STOP CALLER "
		},
		"gasEstimates": {
			"creation": {
				"codeDepositCost": "120400",
				"executionCost": "163",
				"totalCost": "120563"
			},
			"external": {
				"getEth()": "infinite",
				"getGwei()": "infinite",
				"getWei()": "334"
			}
		},
		"methodIdentifiers": {
			"getEth()": "cb05b93e",
			"getGwei()": "2408521d",
			"getWei()": "3ba15036"
		}
	},
	"abi": [
		{
			"anonymous": false,
			"inputs": [
				{
					"indexed": false,
					"internalType": "address",
					"name": "sender",
					"type": "address"
				},
				{
					"indexed": false,
					"internalType": "uint256",
					"name": "amount",
					"type": "uint256"
				}
			],
			"name": "EthReceived",
			"type": "event"
		},
		{
			"inputs": [],
			"name": "getEth",
			"outputs": [
				{
					"internalType": "uint256",
					"name": "",
					"type": "uint256"
				}
			],
			"stateMutability": "view",
			"type": "function"
		},
		{
			"inputs": [],
			"name": "getGwei",
			"outputs": [
				{
					"internalType": "uint256",
					"name": "",
					"type": "uint256"
				}
			],
			"stateMutability": "view",
			"type": "function"
		},
		{
			"inputs": [],
			"name": "getWei",
			"outputs": [
				{
					"internalType": "uint256",
					"name": "",
					"type": "uint256"
				}
			],
			"stateMutability": "view",
			"type": "function"
		},
		{
			"stateMutability": "payable",
			"type": "receive"
		}
	]
}